:020000040800F2
:1000000050050020AD010008B7210008651E00085A
:10001000B5210008A5070008DD2600080000000043
:10002000000000000000000000000000BB210008EC
:10003000E508000800000000B9210008C50100081B
:10004000C7010008C7010008C7010008C701000870
:10005000C7010008C7010008C7010008C701000860
:10006000C7010008C7010008C7010008C701000850
:10007000C7010008C7010008C7010008C701000840
:10008000C7010008C7010008C70100080000000000
:10009000000000000000000000000000C701000890
:1000A000C7010008B1220008C7010008A522000806
:1000B000BD220008C7010008C7010008C7010008E9
:1000C000C7010008C7010008C7010008C7010008F0
:1000D000C7010008C7010008D12600080000000081
:1000E000C7010008C7010008C701000800000000A0
:1000F000000000000000000000000000C701000830
:1001000000000000C7010008C7010008C70100087F
:1001100000000000000000000000000000000000DF
:10012000C7010008C7010008C7010008C70100088F
:10013000C7010008000000000000000000000000EF
:10014000000000000000000000000000C7010008DF
:10015000C7010008C7010008C7010008C70100085F
:10016000C7010008C70100080000000000000000EF
:10017000000000000000000000000000000000007F
:1001800000000000C701000800000000000000009F
:10019000C7010008C7010008DFF80CD000F0DEFA44
:1001A00000480047C9320008500500200648804733
:1001B00006480047FEE7FEE7FEE7FEE7FEE7FEE74C
:1001C000FEE7FEE7FEE7FEE7892200089901000846
:1001D0002DE9F05F0546002092469B46884606467C
:1001E000814640241BE0284641464746224600F00F
:1001F00002F953465A46C01A914110D31146184687
:10020000224600F0E9F82D1A67EB01084F46224616
:100210000120002100F0E0F817EB00094E41201EFC
:10022000A4F10104DFDC484631462A464346BDE8D6
:10023000F09FD2B201E000F8012B491EFBD27047BB
:100240000022F6E710B513460A4604461946FFF7A2
:10025000F0FF204610BD2DE9FE4F81EA030404F0B3
:10026000004421F0004100944FF0000B23F00043C4
:1002700050EA01045ED052EA03045BD0C3F30A548F
:10028000C1F30A552C44A4F2F3340194A0FB0254A8
:10029000C1F3130141F48011C3F3130343F480133A
:1002A00001FB024400FB034E840A970A44EA81548E
:1002B00047EA8357A4FB076802958D0A05FB07856B
:1002C0004FEA932C04FB0C542705029D4FEA065875
:1002D00047EA1637B5EB08056EEB070C870E920E52
:1002E00047EA811742EA8312A7FB0201B6EB0B0132
:1002F00064EB00042B0D43EA0C335E1844EB1C50F6
:10030000DA465146E7FB0201C5F313044FEA0B330B
:1003100043EA14534FEA0432019C43EA0603A4F172
:100320000C040294009CCDE900B400F083F803B003
:10033000BDE8F08F00200146F9E70EB540F23341E9
:1003400002910021CDE900110A460B4600F072F837
:1003500003B000BDC1F30A5210B5C1F3130140F25E
:10036000FF3341F480119A4201DA002010BD40F2BF
:1003700033439A42A2F2334203DC524200F03BF88C
:1003800010BD904010BD00F0004230F000400AD097
:10039000C10D01F56071C0F3160042EA0151C208B7
:1003A00040071143704700200146704730B50B46A7
:1003B000014600202022012409E021FA02F59D4295
:1003C00005D303FA02F5491B04FA02F52844151E69
:1003D000A2F10102F1DC30BD202A04DB203A00FA50
:1003E00002F1002070479140C2F1200320FA03F38C
:1003F000194390407047202A04DB203A21FA02F08A
:100400000021704721FA02F3D040C2F1200291404E
:1004100008431946704710B5141E73F1000408DA3A
:10042000401C41F1000192185B411A4301D120F0B8
:10043000010010BD2DE9F04D92469B4611B1B1FA75
:1004400081F202E0B0FA80F220329046FFF7C4FF5A
:1004500004460F4640EA0A0041EA0B0153465A4659
:10046000084313D0114653EA010019D0C8F14002E5
:100470005046FFF7C0FF05460E46504659464246D5
:10048000FFF7AAFF084305D0012004E020463946C3
:10049000BDE8F08D0020054346EAE0762C43374363
:1004A0000A986305E40AA0EB08000022FD0A44EA6A
:1004B00047540A3002D500200146E9E7010510192A
:1004C0006941DDE9084500196941BDE8F04DA2E741
:1004D0002DE9FE4F804681EA0300C00F0C460090D4
:1004E00021F0004123F00045B8EB0200A94105D2FC
:1004F0004046214690461C460B46024623F00040EB
:10050000104347D0270DC7F30A00C3F30A510290E6
:10051000401A019040286BDAC3F3130040F4801BAB
:100520000098924620B10023D2EB030A63EB0B0B39
:1005300001985946C0F140025046FFF74DFF06466C
:100540000D4650465946019A00F01AF910EB080082
:100550006141002487EA115284EAE7731A4340D0CC
:10056000009A62B3019A012A4FEA075215DC001B78
:1005700061EB02014FF0004202EA0752CDE900426E
:10058000001C41F5801132462B46FFF753FF03B0A4
:10059000BDE8F08F40462146F9E7001B61EB020100
:1005A000001C41F5801300185B412018A2F50017CC
:1005B00047EB030140EAD570B6196D4111E06D08B3
:1005C0004FEA360645EAC0754FEA0752001B61EB59
:1005D0000201001C41F5801149084FEA3000001962
:1005E000514132462B4603B0BDE8F04FFFF713BF31
:1005F0000098012240000023D0EB020263EBE0737D
:10060000009821464FEAE074B8EB000061EB04016A
:10061000E9E783F000435BE781F0004158E72DE90B
:10062000F04D81EA030404F0004B21F0004514462C
:100630004FF0000A23F0004150EA050220D054EAAE
:1006400001021DD0C5F30A570246C5F31303C1F3D7
:100650001300C1F30A5640F4801543F48013A7EB4E
:100660000608101BD64608F2FD3873EB050002D3CE
:1006700008F1010801E092185B41B8F1000F03DABC
:1006800000200146BDE8F08D00204FF480110646A1
:1006900084460EE0171B73EB050705D3121B63EBB3
:1006A000050306434CEA010C49084FEA3000921852
:1006B0005B4150EA0107EDD152EA030012D082EA11
:1006C000040083EA0501084305D0101BAB4106D2A4
:1006D0000122002306E000224FF0004302E06FF009
:1006E000010253101AEB06004CEB085110EB0A0004
:1006F00041EB0B01BDE8F04DFFF78DBEC1F30A528F
:10070000C1F3130140F2FF3341F480119A4202DA3F
:1007100000200146704740F233439A42A2F233422E
:1007200002DC5242FFF767BEFFF756BE30B5041E2B
:1007300071F1000404DB4FF00044404264EB01011E
:10074000141E73F1000405DB1C464FF000435242B7
:1007500063EB0403994208BF904230BD064C074D3D
:1007600006E0E06840F0010394E807009847103481
:10077000AC42F6D3FFF714FDD8330008F833000875
:10078000202A06DBCB17203A41FA02F043EAE07355
:1007900006E041FA02F3D040C2F120029140084342
:1007A00019467047FEE7000070B50024282002F0CB
:1007B00039FC0B4D0221284600F0E2F940B95020E7
:1007C00002F030FC0221284600F0DAF900B10124E1
:1007D0000221284600F0D4F90028F9D1204670BD46
:1007E000000002402DE9F0410024144F01260221AF
:1007F000384600F0C5F90028F9D0282002F012FC94
:100800000221384600F0BCF990B1C4F1070106FAA4
:1008100001F02843C5B20221384600F0B1F90028A2
:10082000F9D1641CE4B2082CE1D32846BDE8F0817C
:10083000C4F1070006FA00F08543ECE7000002402F
:1008400010B5124C0221204601F0CAFC01220221FF
:10085000204600F09AF94FF47A7000F0B5F80022C3
:100860000221204600F091F944F2506002F0DAFBD8
:1008700001220221204600F088F9142002F0D2FB68
:100880002046BDE81040022101F098BC0000024063
:1008900010B5FFF7D5FFFFF787FF114CA070FFF7EA
:1008A000A1FF2071FFF79EFF6071FFF79BFFA07112
:1008B000FFF798FFE071FFF795FF2081A079A081F5
:1008C00000EE100A21796181B8EE400A84ED070A32
:1008D00000EE101AB8EE400A84ED080A10BD0000C0
:1008E000000000207047000070B50021012002F0D8
:1008F00095FC13A002F0DEFC134C64216078B0FB81
:10090000F1F03030C0B202F0B5FC60780A25B0FBDF
:10091000F5F0B0FBF5F105FB1100303002F0AAFC58
:100920006078B0FBF5F105FB1100303002F0A2FC5D
:1009300006A002F0BFFCBDE87040C82000F044B83B
:10094000446973743D2000000000002020636D00A6
:1009500000B52DED028B85B0B0EE408A14216846BB
:10096000FFF76EFC0021084602F058FC18EE100A52
:10097000FFF709FD41EC100B07A153EC102B684663
:1009800001F0BEFE684602F095FC632002F072FCA6
:1009900005B0BDEC028B00BD54454D503A2D2025CD
:1009A0002E32660090F83510022903D0802141656F
:1009B00001207047052180F835100068016821F09A
:1009C000010101600020704770B5044600F0E2F8B4
:1009D0000546601C02D004480078044400F0DAF8B0
:1009E000401BA042FAD370BD240000202DE9F84F2F
:1009F00000224FF0010803254FF00F0E0B6808FA94
:100A000002F42340A34271D14E68012E05D0022E7C
:100A100003D0112E01D0122E15D18668570005FA89
:100A200007FC26EA0C06D1F80CC00CFA07FC4CEACD
:100A3000060CC0F808C04668A6430C79C4F300143D
:100A4000944034434460C668570005FA07FC8C683C
:100A500026EA0C06BC403443C4604C68022C01D02A
:100A6000122C13D1D40800EB8404A346D4F82090B0
:100A700054074FEAD46A0EFA0AF629EA06090E6903
:100A800006FA0AF646EA0906CBF8206004680E79F1
:100A900024EA0C0406F00306BE40264306604C68B8
:100AA000E40056D52E4C266846F48046266024681D
:100AB00022F0030604F4804400942A4C3444A446F3
:100AC000D4F808489607370F0EFA07F6B443264EB7
:100AD000B04201D1002615E0244EB04201D10126DA
:100AE00010E0234EB04202D102260BE031E0214E4D
:100AF000B04201D1032605E01F4EB04201D10426C9
:100B000000E00726BE402643CCF808681B4E346838
:100B10004F689C43FF0300D51C433460174E361DBD
:100B200034684F689C43BF0300D51C433460134EA8
:100B3000083634684F689C43FF0200D51C4334607C
:100B40000E4E0C3634684F689C43BF0200D51C43E0
:100B50003460521C102AFFF451AFBDE8F88F00003A
:100B600044380240003001400000024000040240CE
:100B700000080240000C024000100240003C01400E
:100B80000069084000D0012070470AB181617047B8
:100B90000904FBE70148806870470000240000203A
:100BA00070B5040025D094F83D00002520B984F8E4
:100BB0003C50204600F04EF9242084F83D00206887
:100BC000016821F0010101602068016841F40041E1
:100BD00001602068016821F40041016000F0DCFA46
:100BE0004D4A6168914201D84C4900E04C49884225
:100BF00001D2012070BD4B492368B0FBF1F15E6862
:100C000026F03F060E435E606368934206D94FF4B8
:100C1000967359434FF47A73B1FBF3F12368491C7F
:100C20001E6A26F03F06314319626168914210D86E
:100C30004900401EB0FBF1F2521CC2F30B02042A21
:100C400001D2042022E0B0FBF1F0401CC0F30B0005
:100C50001CE0A268F2B301EBC10303EB0116431ED3
:100C6000B3FBF6F35B1C43F480431B0549D092B3FE
:100C700001EBC10202EB0111401EB0FBF1F0401C80
:100C8000C0F30B0040F4804040F400402168CA6982
:100C90004CF6FF739A431043C861D4E9071001432F
:100CA0002068026822F0C00211430160D4E9030108
:100CB00001432068826848F2FF339A431143816000
:100CC000D4E9050108432168CA6822F0FF021043F5
:100CD000C86001E00EE016E02068016841F0010103
:100CE00001602564202084F83D00256384F83E508F
:100CF000002070BD01EB4106431EB3FBF6F35B1C05
:100D0000B3E70120C2E701EB4101401EB0FBF1F067
:100D1000401CC0F30B00B7E7A086010080841E00D2
:100D200000093D0040420F002DE9F84F1F46904654
:100D30008A460446DDF82890FFF72CFF054694F814
:100D40003D0020287FD119230122404920460095EB
:100D500001F014F9002876D194F83C00012872D0F3
:100D6000012084F83C0020680168C90703D10168AC
:100D700041F0010101602068016821F40061016017
:100D8000212084F83D00102084F83E0000262664CF
:100D9000C4F824806785608D20852D48E0622B464D
:100DA0004A465146204601F075F890B920684169DD
:100DB0008069009036E02A464946204601F05DF9F8
:100DC00050B1206C042804D12068016841F40071FE
:100DD00001600120BDE8F88F606A21680078086131
:100DE000606A401C6062618D491E6185218D491ECB
:100DF00089B2218522685369DB435B070BD451B16B
:100E000000781061606A401C6062608D401E6085E1
:100E1000208D401E20852A464946204601F088F84C
:100E20000028CED1208D0028C5D154F83D0B016893
:100E300041F400710160202004F81E09E67766770E
:100E40000020C7E7FFE70220C4E70000020010000F
:100E50000000FFFF10B586B0044614216846FFF776
:100E6000EFF913492068884220D11248016841F007
:100E7000020101600068694600F002000590C02090
:100E80000090122001900120029003200390042082
:100E900004900948FFF7AAFD06481030016841F4A4
:100EA00000110160006800F40010059006B010BD4C
:100EB000005400403038024000040240024881687B
:100EC0000278114481607047240000200B4810B55F
:100ED000016841F400710160016841F480610160C2
:100EE000016841F480710160032000F089F800205E
:100EF00000F006F800F03EF8002010BD003C024073
:100F000010B5014688B000221C2000F059F81C20C2
:100F100000F048F814480024016841F00101016024
:100F2000006805A900F001000690684600F014F979
:100F300000F032F90D494000B0FBF1F10C484FF0E0
:100F40008042491E026040F2E732C0E90324C0E952
:100F5000011400F061FB10B1012008B010BD04487D
:100F600000F088FBF9E700004038024040420F00E3
:100F70000C0100200A4808B5016841F48041016075
:100F8000006800F4804000900548001F016841F0AF
:100F900080510160006800F08050009008BD0000A2
:100FA00044380240002809DB00F01F020121914073
:100FB0004009800000F1E020C0F8001170470000F7
:100FC000F0B40E4B1B680C46C3F30223C3F10705B4
:100FD000042D00D90425191D072901D2002300E0A2
:100FE000DB1E012606FA05F1491E214099409E406C
:100FF000761E16403143F0BC01F096BB0CED00E0CC
:10100000064900F0070208684FF6FF03184040EA5F
:101010000220034A10430860704700000CED00E016
:101020000000FA052DE9F0470E46050065D0DFF80F
:101030001481D8F80000F7B200F00F00B04207D2D8
:1010400088F80070D8F8000000F00F00B04254D1CA
:1010500028683D4C810712D5400703D5206840F42D
:10106000E05020602878000703D5206840F46040F5
:1010700020602068A96820F0F000084320602878EC
:10108000C0072DD0304968680839012812D00228DD
:1010900013D0032811D00968890700292DDA2168A7
:1010A00021F0030101432160FFF774FD814641F205
:1010B000883A0EE009688903EFE709688901ECE7DF
:1010C000FFF768FDA0EB0901514502D90320BDE8F7
:1010D000F0872068696800F00C00B0EB810FEFD159
:1010E000D8F80010404601F00F01B14207D907704F
:1010F000006800F00F00B04201D00120E7E7287837
:10110000400705D52068E96820F4E05008432060D6
:101110002878000706D52068296920F4604040EA55
:10112000C100206000F058F82168084AC1F303119B
:10113000515CC8400649086006480068FFF7E0FEB9
:101140000020C4E7003C024008380240C0330008D9
:1011500030000020280000200F2202600C4A136893
:1011600003F003034360136803F0F0038360136824
:1011700003F4E053C36012684FF4E05303EAD20271
:1011800002610448006800F00F000860704700002A
:1011900008380240003C02400448054900680968DC
:1011A000044AC1F38221515CC840704730000020DE
:1011B00008380240D033000804480549006809682F
:1011C000044AC1F34231515CC840704730000020EE
:1011D00008380240D0330008154810B5006810F0F8
:1011E0000C02144813D01449042A0FD0082A0ED137
:1011F0000F4C241F2268236802F03F025B0207D5D0
:101200002068C0F38810A0FB010106E0084610BD6D
:101210002168C1F38811A1FB00010023FEF7D8FF6C
:101220002168C1F30141491C4900B0FBF1F010BD38
:10123000083802400024F40040787D012DE9F84F81
:10124000040076D02078DFF838A3CE4DC00749D00F
:10125000DAF800105046C1F38101012908D0006876
:10126000C0F3810002280AD1281D0068400206D57B
:101270002868800336D560680028E2D032E06068D4
:10128000B0F5803F10D0B0F5A02F286810D020F422
:1012900080302860286820F4802028606068A0B131
:1012A000FFF778FC06460CE0286840F48030F4E74D
:1012B00040F480202860F7E7FFF76CFC801B64286F
:1012C00073D828688003F7D50CE0FFF763FC064667
:1012D00005E000BFFFF75EFC801B6428F0D828689B
:1012E0008003F7D42078DFF8A08280074FF0000950
:1012F0003ED5DAF80010504611F00C0F09D0006806
:10130000C0F3810002280BD19D48001F00684002F5
:1013100006D42868800715D5E068012809D111E0B6
:10132000E068B8B10120C8F80000FFF733FC0646BA
:1013300005E020E1FFF72EFC801B0228C0D82868BA
:101340008007F7D52868216920F0F80040EAC1003D
:1013500028600DE0C8F80090FFF71CFC064604E08A
:10136000FFF718FC801B02281FD828688007F7D4D5
:101370002078000722D5824E844861696C3671B1AD
:1013800001210160FFF706FC074604E0FFF702FCBD
:10139000C01B022809D830688007F7D50EE0C0F8D6
:1013A0000090FFF7F7FB074605E082E0FFF7F2FB4E
:1013B000C01B02287DD830688007F7D4207840070A
:1013C00068D5DFF8BCB100270BF1380BDBF8000063
:1013D000C0000BD4DBF8001041F08051CBF80010B6
:1013E000DBF80000012700F080500090684E306864
:1013F000C00510D4306840F480703060FFF7CAFB3D
:10140000009005E0FFF7C6FB0099401A022850D86B
:101410003068C005F6D55A4EA068683601280FD04E
:101420000528306810D020F001003060306820F0CE
:1014300004003060A068B8B1FFF7ACFB00900FE08B
:10144000306840F00100F4E740F004003060F7E756
:10145000FFF7A0FB0099411A41F28830814266D81B
:1014600030688007F4D50EE0FFF794FB009007E0AA
:10147000FFF790FB0099411A41F28830814256D81B
:1014800030688007F4D42FB1DBF8001021F08051D0
:10149000CBF80010A069D0B3DAF800205146C2F3AF
:1014A0008102022A4AD00228484607D0C8F86000C4
:1014B00000E03CE0FFF76EFB04463BE04746C8F81F
:1014C0006000FFF767FB064605E000BFFFF762FB21
:1014D000801B02282BD828688001F7D4D4E90701A3
:1014E0000843A16A2B4A490802EB0141626A41EABA
:1014F0008211084394F82C1040EA01612048001F33
:10150000016001203866FFF745FB044605E034E042
:10151000FFF740FB001B022809D828688001F7D597
:101520002BE000BFFFF736FB001B022802D9032087
:10153000BDE8F88F28688001F4D41EE00128F7D0B8
:101540000868E26900F48001914214D1226A00F037
:101550003F0191420FD147F6C071626A014091424A
:1015600009D1A26A00F44031914204D1E16A00F04D
:101570007060884201D00120DAE70020D8E700003F
:10158000083802400038024000004742800E4742BF
:10159000007000400000FFFF7047704770B590F882
:1015A0003C20012A2CD0012480F83C40022280F803
:1015B0003D2003685A689D6822F070060A6832432D
:1015C0005A60104B02689A420ED0B2F1804F0BD095
:1015D0000D4B9A4208D00D4B9A4205D00C4B9A42C3
:1015E00002D00C4B9A4204D1496825F0800319437C
:1015F000916080F83D40002180F83C10084670BDA5
:10160000022070BD000001400004004000080040BE
:10161000000C00400040014010B5040003D094F8D5
:101620003D0010B107E0012010BD002084F83C000F
:10163000204600F00CF8022084F83D00211D2068AF
:1016400000F042FE012084F83D00002010BD7047EC
:10165000022180F83D1001688A6802F00702062A1C
:1016600003D00A6842F001020A60012180F83D10AF
:10167000002070470168CA6842F00102CA60006831
:10168000816801F00701062903D0016841F00101DA
:10169000016000207047000070B50546007F0128FA
:1016A00022D1274C207870B101281DD10021284675
:1016B00000F027FA6061296800264E62216988429D
:1016C00013D9401A19E00021284600F01AFA2061C7
:1016D000012020702868016A21F00A01016228684F
:1016E000016A41F00201016270BD814201D8A06926
:1016F00004E04FF6FF72511A0844A061FEF71DFE88
:101700009FED101B53EC112BFEF7A5FD9FED0F1B5A
:1017100053EC112BFEF79FFDFEF71CFE6070267048
:101720002868016A21F00A0101622868016A0162E1
:1017300008480068C16821F00201C16070BD000066
:10174000000000209CC420B07268A13F000000008F
:101750000000E03F8C0000202DE9F041044690F8A5
:101760003C000D4601283DD0012684F83C60022053
:1017700084F83D00AAB3042A46D02068082A55D030
:10178000D5E90027E968036A23F480530362D0F89F
:101790001CC0036A2CF4407C4CEA07274FF6FF7C00
:1017A00027F470470CEA013139434FF4204723F402
:1017B000204307EA02321A43C16102622068C1690C
:1017C00021F44061C1612068C169AA6841EA02212F
:1017D000C0F81C1084F83D60002084F83C00BDE88F
:1017E000F08101E00220FAE7D5E90012EB682068F9
:1017F00000F0C4FD2068816921F00C01816120683E
:101800008169AA6811430FE0D5E90012EB682068EE
:1018100000F0EAFD2068816921F44061816120685F
:101820008169AA6841EA02218161D3E7D5E9002CE8
:101830002F7B016A21F480710162C169036A21F082
:10184000030141EA0C0121F0F00C39074FF4206745
:101850004CEA116123F4206307EA02221A43C161B2
:1018600002622068C16921F00C01C1612068C16970
:10187000AA681143ACE710B5040003D094F83D000A
:1018800010B107E0012010BD002084F83C00204684
:1018900000F00CF8022084F83D00211D206800F0C3
:1018A00013FD012084F83D00002010BD10B586B066
:1018B000044614216846FEF7C3FC1B492068884291
:1018C00030D11A480021026842F00102026000682B
:1018D00000F00100059015481438026842F010022B
:1018E0000260006800F0100005904FF40070009056
:1018F0000220CDE901010120CDE9031069460C4821
:10190000FFF774F8002211461920FFF759FB192040
:10191000FFF748FB002211461B20FFF751FB1B205D
:10192000FFF740FB06B010BD000001404438024004
:101930000010024010B50268044631B1042908D0F5
:1019400008291AD00C2908D11BE0D06840F0020009
:1019500002E0D06840F00400D0600122206800F06E
:10196000FFFC2068816801F00701062903D00168A7
:1019700041F001010160002010BDD06840F0080076
:10198000EAE7D06840F01000E6E770B5044600686A
:1019900001694FF00005C943890715D4C168C943DF
:1019A000890711D4E91E0161012020772068806930
:1019B0008007204602D0FFF76FFE04E000F098F8A1
:1019C000204600F096F8257720680169C943490749
:1019D00017D4C168C943490713D46FF004010161EA
:1019E000022020772068806910F4407F204602D0D2
:1019F000FFF752FE04E000F07BF8204600F079F893
:101A0000257720680169C943090716D4C168C9430D
:101A1000090712D46FF008010161042020772068C3
:101A2000C0698007204602D0FFF736FE04E000F0D0
:101A30005FF8204600F05DF8257720680169C9430A
:101A4000C90617D4C168C943C90613D46FF0100181
:101A50000161082020772068C06910F4407F20468B
:101A600002D0FFF719FE04E000F042F8204600F033
:101A700040F8257720680169C943C90708D1C168C2
:101A8000C943C90704D1891E0161204600F032F81C
:101A900020680169C943090609D4C168C943090618
:101AA00005D46FF0800101612046FFF775FD2068C5
:101AB0000169C943490609D4C168C943490605D427
:101AC0006FF040010161204600F030F820680169A4
:101AD000C94389060BD4C168C943890607D46FF08E
:101AE000200101612046BDE87040FFF756BD70BD82
:101AF000704770470068B0F1804F01D1FFF7DEB941
:101B000070470246002041B1042909D008290AD0B3
:101B10000C2901D11068006C70471068406B704749
:101B20001068806B70471068C06B704770477047D3
:101B300070B5026804461068D168536910F00F0F41
:101B400052D003F0010501F490762E435FD0C20716
:101B500005D0CA0503D5E26B42F00102E2634207F9
:101B600005D5DA0703D0E26B42F00202E263820796
:101B700005D5DA0703D0E26B42F00402E263020704
:101B800007D501F020022A4303D0E26B42F008029D
:101B9000E263E26B002A33D0800604D5880602D5C2
:101BA000204600F052FC20684069E16BC0F38010D1
:101BB000090700D428B3204600F039FC20684169A9
:101BC00049061AD5416921F040014161606BA0B11D
:101BD0001B490165606BFEF7E5FE002810D0606BC5
:101BE000016DBDE870400847830610D58B060ED501
:101BF0002046BDE8704000F028BC2046FFF797FF64
:101C000070BD2046FFF793FF0020E06370BD030620
:101C100006D50B0604D52046BDE8704000F0F4BCA4
:101C20004006F3D54806F1D5D168204621F04001A1
:101C3000D160202184F8391000F0F9F870BD00005F
:101C40001F24000870B5040004D094F83900002562
:101C500010B106E0012070BD84F83850204600F035
:101C600023F8242084F839002068C16821F4005149
:101C7000C160204600F034FC2068016921F49041E5
:101C800001612068416921F02A0141612068C16831
:101C900041F40051C160E563202084F8390084F8E4
:101CA0003A00002070BD000010B586B00446142133
:101CB0006846FEF7C5FA17492068884228D11648B9
:101CC000016841F400310160006800F400300590C3
:101CD00011481038016841F001010160006869464F
:101CE00000F0010005900C200090022001900120DE
:101CF000029003200390072004900848FEF776FE28
:101D0000002211462620FFF75BF92620FFF74AF94B
:101D100006B010BD004400404038024000000240C0
:101D200090F83A30202B22D1F9B1F2B190F8383046
:101D3000012B1CD081628285C2850021C1632222D1
:101D400080F83A2080F838100168CA6842F480723E
:101D5000CA6001684A6942F001024A610068C168CC
:101D600041F02001C160002070470120704702202F
:101D7000704770472DE9F843044690F839001F4634
:101D800016460D46202850D1B5B1AEB194F83800B2
:101D900001284AD0012084F838004FF00008C4F828
:101DA0003C80212084F83900FEF7F4FEA6848146A9
:101DB000E68484F8388026E00120BDE8F883E08CD2
:101DC000401EE084A0684B46B0F5805F4FF00002F3
:101DD0004FF080012046009703D000F046FCE8B9A0
:101DE0000DE000F042FCC8B928882168C0F3080063
:101DF0004860206908B16D1C05E0AD1C03E0216856
:101E000015F8010B4860E08C0028D8D14B46002221
:101E100040212046009700F028FC08B10320CCE7C1
:101E2000202084F839000020C7E70220C5E770476A
:101E300010B50A4C012280212046FEF7A6FE0A209A
:101E400001F0F0F8002280212046FEF79EFE0448B3
:101E50000068C16841F00201C16010BD001002407D
:101E60008C000020FEE701684A69D24352050FD476
:101E70006FF480624A61002140F8301F20224273D3
:101E80008173026942F0040202610173012070470C
:101E900000207047F8B50446C06A1E460D46174636
:101EA000082807D0012805D010F5803F02D0206B0C
:101EB000122804D12068016841F480710160134642
:101EC00000224FF001112046009600F057F840B173
:101ED00020680068C00502D54FF40070206403201C
:101EE000F8BD2069B0F5804F0ED00620216800EAC9
:101EF000D51040F0F000086133463A460B492046C1
:101F000000F070F878B902E005F0FE0000E0E8B2F9
:101F100021680861054933463A46891F204600F08A
:101F200061F80028DCD00120F8BD000008000100A5
:101F300070B516460D4604460DE02046FFF793FFA8
:101F400008B1012070BD681C05D0FEF723FE801B80
:101F5000A84207D835B120684069C0434007ECD497
:101F6000002070BD002044F8300F20216173A07361
:101F7000216941F0200121612073E2E72DE9F0475A
:101F80001E4690460D460446C1F30747DDF82090F3
:101F900008E0701C06D0FEF7FDFDA0EB0900B04282
:101FA0000FD876B12068012F18D0806925EA00008B
:101FB0000004000C14D000214145EAD00020BDE807
:101FC000F087002044F8300F20216173A07321694D
:101FD00041F02001216120730120F0E74069E5E72D
:101FE0000121E9E72DE9F0479A4691460E4604465D
:101FF00000254FF02008C1F3074725E0206840691D
:10200000C043400514D42068016841F400710160A8
:1020100021686FF480604861256384F83D8084F80E
:102020003E50206C40F00400206484F83C501FE0D7
:10203000B9F1FF3F08D0FEF7ADFDA0EB0A0149451D
:102040000CD8B9F1000F09D02068012F13D0806996
:1020500026EA00000004000C0BD0CFE744F8305F04
:1020600084F80D80A573206940F02000206125735D
:102070000120BDE8F0874069EAE770B516460D46D5
:1020800004460DE02046FFF7EEFE08B1012070BDCA
:10209000681C05D0FEF77EFD801BA84207D835B12D
:1020A00020684069C0430006ECD4002070BD0020C9
:1020B00044F8300F20216173A073216941F02001A1
:1020C00021612073E2E70000F0B587B01421684673
:1020D000FEF7B6F81D480024016841F001010160D7
:1020E000016801F001010591016841F010010160F2
:1020F000016801F010010591016841F002010160E1
:102100000068134E00F002000590012202213046C3
:10211000FEF73BFD0F4F002280213846FEF735FDCC
:10212000022000900125CDE9015469463046039410
:10213000FEF75CFC80200090CDE9015469463846EA
:102140000394FEF753FC07B0F0BD000030380240A6
:10215000000002400010024010B586B00024144870
:10216000059404940094019402941049039401602E
:102170004721C0E901144FF6FE71C0E90314446120
:102180008461FFF778FB049404A909480594FFF7DC
:1021900005FA0120CDE90040029400226946044876
:1021A0000394FFF7D9FA06B010BD0000000001400B
:1021B0008C000020FEE770477047704730B585B04F
:1021C0000C46054614216846FEF73AF80021CDE991
:1021D0000041029169462846FEF708FC05B030BD73
:1021E00030B585B00C46054614216846FEF728F840
:1021F0000120CDE900400020039069462846FEF703
:10220000F5FB05B030BD000030B593B03021684615
:10221000FEF716F814210CA8FEF712F8184800254E
:10222000016841F080510160006800F08050119019
:102230001448016841F4404101600068022400F440
:1022400040401190012003901020049000940694C7
:102250000820CDE907504820CDE9090404200B905F
:102260006846FEF7EBFF0CA90F2081E83100E00281
:10227000CDE90F0502210CA8FEF7D4FE13B030BD46
:1022800040380240007000400548016841F4700188
:10229000016003494FF0006080390860704700001A
:1022A00088ED00E00148FFF770BB00008C000020C3
:1022B0000148FFF76ABB00008C0000200148FFF7CF
:1022C00064BB00000C010020F0B502681D4B1E4CE1
:1022D0009F031E4D1E4E984207D0B84205D0A04223
:1022E00003D0A84201D0B04204D122F0700C4A6859
:1022F00042EA0C02984210D0B8420ED0A0420CD054
:10230000A8420AD0B04208D0124CA04205D0124CCC
:10231000A04202D0114CA04203D122F44074CA68FA
:1023200022434C6922F08002224302608A68C26222
:102330000A688262984201D1096901630121416101
:10234000F0BD000000000140000400400008004013
:10235000000C0040004001400044014000480140A2
:1023600010B501F01F030121046A99408C430462F7
:10237000016A9A401143016210BD000070B5046A01
:1023800024F0010404628469056A124EB0420ED042
:10239000B0F1804F0BD0104EB04208D00F4EB0427B
:1023A00005D00F4EB04202D00E4EB04203D124F001
:1023B0000304144301E044F001041A0724F0F0047C
:1023C00044EA126225F00A0301F00A01194382610E
:1023D000016270BD000001400004004000080040A0
:1023E000000C00400040014030B5046A24F01004A5
:1023F00004628469056A24F4407444EA022222F4E7
:1024000070444FF6FF7202EA03322243A02425F003
:10241000A00304EA011119438261016230BD10B5C5
:10242000806B0021C185C184FFF781FB10BD01686D
:10243000CA6822F49072CA6001684A6922F00102F7
:102440004A61202180F83A10704710B590F83A1090
:10245000222901D0022010BD8168B1F5805F11D022
:102460000169002901681FD0496801F07F03816A72
:102470004A1C82620B70C18D491E0904090CC1857A
:1024800018D02BE00269816A002A0268526805D0E0
:10249000D2B20A80816A491C8162ECE7C2F3080269
:1024A0000A80816A891CF7E74A68816A4B1C83624B
:1024B0000A70E0E70168CA6822F02002CA60016879
:1024C000CA6822F48072CA6001684A6922F0010277
:1024D0004A61202180F83A10FFF74BFC002010BD24
:1024E0002DE9F041044600680169E26821F4405199
:1024F000114301612169A068E269084361691143E0
:1025000008432168CA6849F20C639A430243CA60CF
:1025100020684169A26921F4407111434161E06979
:10252000192764253226B0F5004F354A3549206811
:102530004FF0000806D0884201D0904236D1FEF715
:102540003BFE35E0884201D0904202D1FEF734FED6
:1025500001E0FEF721FE61684A18A0FB070148EB85
:102560000803FDF735FE0146B0FBF5F00201B1FBB3
:10257000F5F06FF01803584301EB800006EBC00044
:10258000B0FBF5F000F0F80002EB4002B1FBF5F013
:10259000584301EB800006EBC000B0FBF5F000F003
:1025A0000700216810448860BDE8F081FEF7F4FD63
:1025B00061688B0F8A00A0FB0701FDF709FE014649
:1025C000B0FBF5F06FF01802504301EB800006EB12
:1025D0000010B0FBF5F000F0F002B1FBF5F002EBFB
:1025E0000012B1FBF5F06FF01803584301EB8000C7
:1025F00006EB0010B0FBF5F000F00F00D1E7000093
:10260000001401400010014090F83910212901D038
:10261000022070478168B1F5805F016A0BD04A1CC7
:102620000262026809785160C18C491E0904090CD4
:10263000C1840ED017E009880268C1F30801516017
:1026400001690029016A02D0491C0162ECE7891C7A
:10265000FBE70168CA6822F08002CA600068C168AE
:1026600041F04001C160002070472DE9F0419846DB
:1026700017460E460446069D1DE0681C1BD02DB172
:10268000FEF788FAA0EB0800A84214D92068C168B8
:1026900021F4D071C1602068416921F001014161DC
:1026A000202084F8390084F83A00002084F83800AB
:1026B0000320BDE8F0812068006836EA000004D0FD
:1026C0000020B842D9D00020F3E70120F9E700004C
:1026D0000148FFF72DBA0000CC000020FEE7000003
:1026E0000FB4054B10B503A9044A029800F0FEF898
:1026F00010BC5DF814FB00007531000834000020A8
:102700000FB4084B10B504A902AA039800F0EEF824
:10271000044602A9002000F080FC204610BC5DF8B1
:1027200014FB00001B3000080907090E002804DB19
:1027300000F1E02080F80014704700F00F0000F175
:10274000E02080F8141D704702E008C8121F08C17D
:10275000002AFAD170477047002001E001C1121F22
:10276000002AFBD1704700002DE9FF5F82B00021F5
:10277000DDE90430020DDDF840B0034318D044F623
:102780001050A2F2FF3242431514119801281FD0B5
:10279000A5EB0B00401C5FEA000A4FF000064E4F0D
:1027A000DFF83891B046504615D5CAF1000413E061
:1027B000119801244AA3012801D16FEA0B01029864
:1027C000119AC0E90031C0E9024206B0BDE8F09FAD
:1027D000CBF10000DFE704460021404A491842EBF4
:1027E0000450CDE9001012E0E00707D032463B4626
:1027F00040464946FDF72FFD8046894632463B4616
:1028000010461946FDF727FD06460F466410002CBA
:10281000EAD1DDE90401DDE90023BAF1000F06DAAF
:10282000FDF719FD42464B46FDF715FD05E0FDF7A6
:10283000F6FE42464B46FDF7F2FE04460E460022E7
:10284000284BFDF773FF03D84FF0FF30014607E038
:102850000022254B20463146FDF73AFEFDF74EFF9C
:10286000102409E0002C0ADB0A220023FDF7B0FC4B
:10287000039B30321A55641E50EA0102F2D1641CE7
:10288000039AC4F111031444119A012A03D00122BE
:1028900008430DD10AE0084304D000204FF0110B8B
:1028A000119072E7A3EB0B056D1E0DE05B4504DD97
:1028B0004FF0000205F1010504E003DA4FF00002D9
:1028C000A5F10105002AECD002981199C0E9023166
:1028D000C0E9004579E70000000014400000F03F27
:1028E000300000000000F0430000E03F2DE9FF4F02
:1028F00095B09B468946064600250FE2252877D1EC
:1029000000242746F84A0121059400E0044316F804
:10291000013F203B01FA03F01042F7D130782A281A
:1029200011D06FF02F033078A0F13002092A16D8A9
:10293000059A44F0020402EB820203EB42021044C7
:10294000761C0590EFE759F8042B0592002A03DA6C
:10295000504244F40054059044F00204761C307850
:102960002E2816D116F8010F44F004042A280DD0A1
:102970006FF02F023078A0F13003092B09D807EB54
:10298000870302EB4303C718761CF3E759F8047B6F
:10299000761C30786C280FD006DC4C2817D06828BD
:1029A0000DD06A2814D104E0742810D07A280FD1F1
:1029B0000DE044F400140AE044F4801401E044F40F
:1029C00040147278824202D104F58014761C761C81
:1029D000307866280BD013DC582877D009DC002823
:1029E00075D04528F6D04628F4D047281AD19DE165
:1029F00018E0632835D0642879D0652812D195E194
:102A0000702873D008DC6728F1D069286FD06E2851
:102A10000DD06F2806D1B5E073282CD0752875D05D
:102A2000782874D05A46179990476D1C75E1C4F305
:102A30000250022809D003280DD0D9F8001004282C
:102A40000DD00D6009F1040967E1D9F80010EA170B
:102A5000C1E90052F6E7D9F800100D80F2E70D70D9
:102A6000F0E719F8041B8DF8001000208DF8010024
:102A7000EA46012003E059F804AB4FF0FF3061074C
:102A80004FF0000102D40DE008F101018846B9427F
:102A90000FDA8045F8DB1AF808100029F4D108E0B5
:102AA00008F1010188468142FADB1AF80810002972
:102AB000F6D105985B46A0EB080721463846179AE1
:102AC00000F094FA284400EB080507E04DE029E106
:102AD0000DE01AF8010B5A4617999047B8F1010812
:102AE000F7D25B4621463846179A13E142E00A22A4
:102AF0000092C4F302524FF0000A022A08D059F89B
:102B000004CB032A4FEAEC710AD00DE029E02AE059
:102B100009F1070121F00702F2E802C1914609E03C
:102B20000FFA8CFC4FEAEC71042A03D14FFA8CFCAB
:102B30004FEAEC71002907DA0A460021DCF1000CAB
:102B400061EB02012D2202E0220504D52B228DF833
:102B50000420012203E0E20701D02022F7E790469B
:102B600059E00A2102E010220DE010214FF0000A86
:102B700000910BE010224FF0000A44F004040827F3
:102B8000009203E008224FF0000A0092C4F30252C0
:102B9000022A05D059F804CB0021032A08D009E005
:102BA00009F1070121F00702F2E802C1914605E0B0
:102BB0001FFA8CFC042A01D10CF0FF0C4FF0000826
:102BC000220728D5702806D0009B83F0100353EA13
:102BD0000A0305D00EE040228DF80420012208E00F
:102BE0005CEA010206D030228DF804208DF8050041
:102BF00002229046009B83F0080353EA0A030AD19D
:102C00005CEA010201D1620705D530228DF804206B
:102C10004FF001087F1E582804D034A003900EA85E
:102C200002900DE036A0F9E753466046009AFDF7A2
:102C3000CFFA84460398825C0298401E029002708C
:102C40005CEA0100F0D1029806A9081A00F1200AF6
:102C5000600702D524F4803400E00127574502DDE7
:102C6000A7EB0A0000E0002000EB0A0100900598A5
:102C70004144401A0590E00306D45B462146179A6A
:102C8000059800F0B3F90544002706E001A85A466C
:102C9000C05D179990476D1C7F1C4745F6DBE0032C
:102CA0000CD55B462146179A059800F09FF905441C
:102CB00004E030205A46179990476D1C0099481E31
:102CC00000900029F5DC08E0029802995A46007845
:102CD000491C0291179990476D1CBAF10001AAF1A5
:102CE000010AF1DC65E100000928010030313233CE
:102CF0003435363738396162636465660000000038
:102D00003031323334353637383941424344454621
:102D10000000000000F058F90544761C30780028C7
:102D20007FF4ECAD19B02846BDE8F08F620700D4FF
:102D3000062709F1070222F0070CFCE80223E1460E
:102D400003F000485FEA080C02D00FF2702C0DE08F
:102D50005FEA045C02D50FF2682C07E05FEAC47CEE
:102D600002D00FF2602C01E0AFF2700C4FF0FF3890
:102D700023F00043CDF850C065280CD006DC452870
:102D800009D046281DD047283DD13DE0662818D0FF
:102D900067287ED138E00021112F01DB112000E0EF
:102DA000781CCDE9000106A90EA8FFF7DDFCDDE9DE
:102DB0000F010E9A03910021009207F1010A04917C
:102DC0004DE04FF000400097CDE9011006A90EA894
:102DD000FFF7CAFCDDE90F0203920E9B1199002256
:102DE000DDF80CA00093049211B9791C00EB010AE4
:102DF000B7EB0A0004D4C0F1FF3007F1010A0490D8
:102E0000AAEB0700019044E0012F00DA012700211E
:102E1000112F01DD112000E03846CDE9000106A99F
:102E20000EA8FFF7A1FCDDE90F010E9A0391002126
:102E300004910092BA4621070CD40399514500DA57
:102E40008A46BAF1010F05DD009AAAF10101515C31
:102E5000302908D0B84202DA10F1040F06DA012155
:102E6000CDE9011015E0AAF10101E9E7002805DC30
:102E7000049901440491AAEB000102E0411C514570
:102E800000DD8A460499401A401C01904FF0004032
:102E90000290200704D40198504501DBCDF804804E
:102EA00000208DF84F0002980DF14F07B0F1004F50
:102EB00025D02B200E9002984FF0020800280CDA43
:102EC000404202902D200E9007E00A210298FDF763
:102ED0006DFA3031029007F8011DB8F10001A8F138
:102EE0000108F2DC02980028EFD1791E0E980870D4
:102EF000307800F0200040F0450007F8020D12A8DD
:102F0000C01B00F107081498007800B1012000EB05
:102F10000A01019801EBE07105984144401A401EF6
:102F20000590E00306D45B462146179A059800F009
:102F30005DF805441498007818B15A4617999047DF
:102F40006D1CE00324D55B462146179A059800F0D6
:102F50004DF805441CE00498002807DBDDE9030177
:102F6000884203DD0098405C179901E017993020F2
:102F70005A469047049805F10105401C04900198B9
:102F8000401E019004D12E205A46179990476D1C7F
:102F9000BAF10001AAF1010ADDDC05E017F8010B26
:102FA0005A46179990476D1CB8F10001A8F1010825
:102FB000F4DC5B462146179A0598ABE62D0000002D
:102FC0002B000000200000002DE9F0410446002500
:102FD0001E461746880404D405E039462020B04731
:102FE0006D1C641EF9D52846BDE8F0812DE9F0413D
:102FF000044600251E469046C80301D5302700E050
:103000002027880404D505E041463846B0476D1CAA
:10301000641EF9D52846BDE8F0810A68531C0B6090
:1030200010707047044900220B685A6209684A6AA6
:103030008242FCD3704700008C00002010B5FDF7E1
:10304000A9FD01460BA0FFF74BFBFDF721FC0F4844
:10305000C069FDF798F941EC100B0DA053EC102B53
:10306000FFF73EFBFDF796FD0146BDE810400BA0C3
:10307000FFF736BB5461736B203120737461727437
:103080003A2040256C75200A000000000000002056
:103090002D54454D503A202566200A005461736B2B
:1030A00020312073746F703A2040256C75200A001F
:1030B00010B5FDF76FFD014608A0FFF711FBFEF705
:1030C000B7FE0C4841780CA0FFF70AFBFDF762FD44
:1030D0000146BDE810400CA0FFF702BB5461736BC2
:1030E00020322073746172743A2040256C75200A76
:1030F00000000000000000202D44495354203D20D2
:103100002566200A000000005461736B2032207392
:10311000746F703A2040256C75200A0010B5FDF7D9
:1031200039FD014608A0FFF7DBFA0C4890ED070ACD
:10313000FDF70EFCFDF7D8FBFDF72CFD0146BDE8C1
:10314000104007A0FFF7CCBA5461736B2033207393
:10315000746172743A2040256C750A0000000020EA
:103160005461736B20332073746F703A2040256C68
:10317000750A000013B54FF0FF330122694602487B
:10318000FEF7F8FD00981CBDCC00002010B5802093
:1031900000F050F80024202000F06CF8641C462C4D
:1031A000F9DB10BD10B53220FDF70EFC302000F029
:1031B00041F80520FDF708FC302000F03BF8012025
:1031C000FDF702FC302000F035F80A20FDF7FCFB8B
:1031D000202000F02FF80A20FDF7F6FB282000F051
:1031E00029F80120FDF7F0FB082000F023F801206A
:1031F000FDF7EAFB012000F01DF80120FDF7E4FBDC
:103200000120FDF7E1FB062000F014F80120FDF796
:10321000DBFBBDE810400C2000F00CB810B1012819
:1032200005D102E041F0800101E041F0C001C8B2E7
:10323000AFF300801CB500F0F00141F00C028DF8F6
:10324000042041F0080100018DF8051040F00C0148
:103250008DF8061040F008008DF8070064200090FB
:10326000042301AA4E210248FDF75EFD1CBD0000AB
:10327000380000201CB500F0F00141F00D028DF87F
:10328000042041F0090100018DF8051040F00D0106
:103290008DF8061040F009008DF8070064200090BA
:1032A000042301AA4E210248FDF73EFD1CBD00008B
:1032B0003800002010B5044602E0641CFFF7DAFF76
:1032C00020780028F9D110BDFDF700FEFEF79CFF25
:1032D000FEF7FAFE32483149002401603149C0E965
:1032E00001144FF48041C0E9034144618461C46129
:1032F0000462FDF755FCFEF72FFF29482A49943058
:1033000001604FF41651C0E901140C21C460C0E9FA
:1033100004418461C461FEF795FC214801222349E0
:103320009430FEF7FDFC1E485430FEF791F91C481E
:1033300000215430FEF7FEFAFFF734FF1CA0FFF720
:10334000B9FF4FF4FA60FDF73FFBFFF71FFF42F6AE
:10335000E0644FF416654FF49668A61040F68C278B
:10336000FDF718FCB0FBF4F104FB110008B9FFF7FE
:1033700065FEFDF70FFCB0FBF5F105FB11004045C4
:1033800001D1FFF795FEFDF705FCB0FBF6F106FB5A
:103390001100B842E4D1FFF7C1FEE1E7005400405C
:1033A00038000020A08601000044004003000020F7
:1033B000494E495449414C495A494E472E2E000026
:1033C00000000000000000000102030406070809D5
:1033D0000000000001020304F83300080000002090
:1033E000380000004827000830340008380000206A
:1033F0001805000058270008000000000000000029
:1034000000000000000000000000000000000000BC
:1034100000000000000000000000000001000000AB
:1034200010000000000000000024F4000000000074
:040000050800019955
:00000001FF
