:020000040800F2
:10000000A85400206D020008A3220008511F000818
:10001000A12200088908000841290008000000000A
:10002000000000000000000000000000AD0100081A
:10003000C909000800000000090200084124000866
:10004000870200088702000887020008870200086C
:10005000870200088702000887020008870200085C
:10006000870200088702000887020008870200084C
:10007000870200088702000887020008870200083C
:1000800087020008870200088702000800000000BD
:1000900000000000000000000000000087020008CF
:1000A00087020008152500088702000809250008B6
:1000B000212500088702000887020008870200083F
:1000C00087020008870200088702000887020008EC
:1000D0008702000887020008352900080000000098
:1000E000870200088702000887020008000000005D
:1000F000000000000000000000000000870200086F
:10010000000000008702000887020008870200083C
:1001100000000000000000000000000000000000DF
:10012000870200088702000887020008870200088B
:10013000870200080000000000000000000000002E
:10014000000000000000000000000000870200081E
:10015000870200088702000887020008870200085B
:10016000870200088702000800000000000000006D
:10017000000000000000000000000000000000007F
:1001800000000000870200080000000000000000DE
:100190008702000887020008DFF80CD000F050FB4F
:1001A00000480047E9340008A85400202C4B196887
:1001B0000868B0E8F04F80F30988BFF36F8F4FF005
:1001C000000080F3118870470000000008480068B4
:1001D000006880F308884FF0000080F3148862B64E
:1001E00061B6BFF34F8FBFF36F8F00DF00BF00BF5B
:1001F00008ED00E0DFF80C00016841F470010160D7
:10020000704700BF88ED00E0EFF30980BFF36F8F08
:10021000134B1A681EF0100F08BF20ED108A20E95A
:10022000F04F106009B44FF0500080F31188BFF315
:100230004F8FBFF36F8F04F0FFF94FF0000080F392
:10024000118809BC19680868B0E8F04F1EF0100F5B
:1002500008BFB0EC108A80F30988BFF36F8F704736
:1002600044000020EFF305807047000006488047F7
:1002700006480047FEE7FEE7FEE7FEE7FEE7FEE78B
:10028000FEE7FEE7FEE7FEE7ED240008990100081F
:100290002DE9F05F0546002092469B4688460646BB
:1002A000814640241BE0284641464746224600F04E
:1002B00014F953465A46C01A914110D311461846B4
:1002C000224600F0FBF82D1A67EB01084F46224644
:1002D0000120002100F0F2F817EB00094E41201E2A
:1002E000A4F10104DFDC484631462A464346BDE816
:1002F000F09F40EA01039B0703D009E008C9121FE1
:1003000008C0042AFAD203E011F8013B00F8013BCF
:10031000521EF9D27047D2B201E000F8012B491EFB
:10032000FBD270470022F6E710B513460A46044692
:100330001946FFF7F0FF204610BD2DE9FE4F81EA78
:10034000030404F0004421F0004100944FF0000B3E
:1003500023F0004350EA01045ED052EA03045BD06C
:10036000C3F30A54C1F30A552C44A4F2F3340194A4
:10037000A0FB0254C1F3130141F48011C3F3130332
:1003800043F4801301FB024400FB034E840A970AE6
:1003900044EA815447EA8357A4FB076802958D0A13
:1003A00005FB07854FEA932C04FB0C542705029D9F
:1003B0004FEA065847EA1637B5EB08056EEB070C0F
:1003C000870E920E47EA811742EA8312A7FB0201C9
:1003D000B6EB0B0164EB00042B0D43EA0C335E1803
:1003E00044EB1C50DA465146E7FB0201C5F3130407
:1003F0004FEA0B3343EA14534FEA0432019C43EAB9
:100400000603A4F10C040294009CCDE900B400F0B2
:1004100083F803B0BDE8F08F00200146F9E70EB580
:1004200040F2334102910021CDE900110A460B460A
:1004300000F072F803B000BDC1F30A5210B5C1F369
:10044000130140F2FF3341F480119A4201DA002097
:1004500010BD40F233439A42A2F2334203DC5242CF
:1004600000F03BF810BD904010BD00F0004230F0AD
:1004700000400AD0C10D01F56071C0F3160042EAD8
:100480000151C208400711437047002001467047E0
:1004900030B50B46014600202022012409E021FA54
:1004A00002F59D4205D303FA02F5491B04FA02F551
:1004B0002844151EA2F10102F1DC30BD202A04DB24
:1004C000203A00FA02F1002070479140C2F1200367
:1004D00020FA03F3194390407047202A04DB203AA6
:1004E00021FA02F00021704721FA02F3D040C2F154
:1004F0002002914008431946704710B5141E73F14D
:10050000000408DA401C41F1000192185B411A43D3
:1005100001D120F0010010BD2DE9F04D92469B461F
:1005200011B1B1FA81F202E0B0FA80F220329046C5
:10053000FFF7C4FF04460F4640EA0A0041EA0B01F8
:1005400053465A46084313D0114653EA010019D0C6
:10055000C8F140025046FFF7C0FF05460E46504620
:1005600059464246FFF7AAFF084305D0012004E0A0
:1005700020463946BDE8F08D0020054346EAE07686
:100580002C4337430A986305E40AA0EB08000022D5
:10059000FD0A44EA47540A3002D500200146E9E743
:1005A000010510196941DDE9084500196941BDE8F7
:1005B000F04DA2E72DE9FE4F804681EA0300C00F0F
:1005C0000C46009021F0004123F00045B8EB0200FA
:1005D000A94105D24046214690461C460B4602469C
:1005E00023F00040104347D0270DC7F30A00C3F3A0
:1005F0000A510290401A019040286BDAC3F31300AD
:1006000040F4801B0098924620B10023D2EB030AED
:1006100063EB0B0B01985946C0F140025046FFF7BF
:100620004DFF06460D4650465946019A00F01AF90C
:1006300010EB08006141002487EA115284EAE77355
:100640001A4340D0009A62B3019A012A4FEA075236
:1006500015DC001B61EB02014FF0004202EA075279
:10066000CDE90042001C41F5801132462B46FFF7D0
:1006700053FF03B0BDE8F08F40462146F9E7001B69
:1006800061EB0201001C41F5801300185B4120184A
:10069000A2F5001747EB030140EAD570B6196D418A
:1006A00011E06D084FEA360645EAC0754FEA075279
:1006B000001B61EB0201001C41F5801149084FEA63
:1006C00030000019514132462B4603B0BDE8F04FCF
:1006D000FFF713BF0098012240000023D0EB020275
:1006E00063EBE073009821464FEAE074B8EB00003A
:1006F00061EB0401E9E783F000435BE781F000412F
:1007000058E72DE9F04D81EA030404F0004B21F095
:10071000004514464FF0000A23F0004150EA05025C
:1007200020D054EA01021DD0C5F30A570246C5F392
:100730001303C1F31300C1F30A5640F4801543F4C8
:100740008013A7EB0608101BD64608F2FD3873EBA2
:10075000050002D308F1010801E092185B41B8F1ED
:10076000000F03DA00200146BDE8F08D00204FF4B1
:100770008011064684460EE0171B73EB050705D370
:10078000121B63EB050306434CEA010C49084FEAD0
:10079000300092185B4150EA0107EDD152EA0300A4
:1007A00012D082EA040083EA0501084305D0101B39
:1007B000AB4106D20122002306E000224FF00043A5
:1007C00002E06FF0010253101AEB06004CEB0851E7
:1007D00010EB0A0041EB0B01BDE8F04DFFF78DBEB9
:1007E000C1F30A52C1F3130140F2FF3341F4801107
:1007F0009A4202DA00200146704740F233439A429F
:10080000A2F2334202DC5242FFF767BEFFF756BE48
:1008100030B5041E71F1000404DB4FF00044404287
:1008200064EB0101141E73F1000405DB1C464FF05C
:100830000043524263EB0403994208BF904230BD2B
:10084000064C074D06E0E06840F0010394E807001D
:1008500098471034AC42F6D3FFF7A2FC24550008A9
:1008600044550008202A06DBCB17203A41FA02F053
:1008700043EAE07306E041FA02F3D040C2F12002FD
:100880009140084319467047FEE7000070B5002408
:10089000282002F0F9FC0B4D0221284600F0E2F975
:1008A00040B9502002F0F0FC0221284600F0DAF9AD
:1008B00000B101240221284600F0D4F90028F9D122
:1008C000204670BD000002402DE9F0410024144F85
:1008D00001260221384600F0C5F90028F9D0282069
:1008E00002F0D2FC0221384600F0BCF990B1C4F10C
:1008F000070106FA01F02843C5B20221384600F08C
:10090000B1F90028F9D1641CE4B2082CE1D32846DF
:10091000BDE8F081C4F1070006FA00F08543ECE77A
:100920000000024010B5124C0221204601F0CCFC20
:1009300001220221204600F09AF94FF47A7000F06B
:10094000B5F800220221204600F091F944F25060EF
:1009500002F09AFC01220221204600F088F91420BE
:1009600002F092FC2046BDE81040022101F09ABC42
:100970000000024010B5FFF7D5FFFFF787FF114CCD
:10098000A070FFF7A1FF2071FFF79EFF6071FFF7D6
:100990009BFFA071FFF798FFE071FFF795FF2081A3
:1009A000A079A08100EE100A21796181B8EE400A99
:1009B00084ED070A00EE101AB8EE400A84ED080A2A
:1009C00010BD0000000000207047000070B500213D
:1009D000012002F033FD13A002F07CFD134C6421D2
:1009E0006078B0FBF1F03030C0B202F053FD6078B7
:1009F0000A25B0FBF5F0B0FBF5F105FB1100303036
:100A000002F048FD6078B0FBF5F105FB11003030D5
:100A100002F040FD06A002F05DFDBDE87040C82078
:100A200000F044B8446973743D20000000000020C9
:100A300020636D0000B52DED028B85B0B0EE408ACD
:100A400014216846FFF76EFC0021084602F0F6FC10
:100A500018EE100AFFF709FD41EC100B07A153EC4B
:100A6000102B684601F07EFF684602F033FD6320DC
:100A700002F010FD05B0BDEC028B00BD54454D5099
:100A80003A2D20252E32660090F83510022903D029
:100A90008021416501207047052180F835100068EC
:100AA000016821F0010101600020704770B5044623
:100AB00000F0E2F80546601C02D0044800780444C7
:100AC00000F0DAF8401BA042FAD370BD34000020D9
:100AD0002DE9F84F00224FF0010803254FF00F0ECB
:100AE0000B6808FA02F42340A34271D14E68012E2C
:100AF00005D0022E03D0112E01D0122E15D18668FA
:100B0000570005FA07FC26EA0C06D1F80CC00CFACF
:100B100007FC4CEA060CC0F808C04668A6430C79EE
:100B2000C4F30014944034434460C668570005FA87
:100B300007FC8C6826EA0C06BC403443C4604C6851
:100B4000022C01D0122C13D1D40800EB8404A3464C
:100B5000D4F8209054074FEAD46A0EFA0AF629EA2C
:100B600006090E6906FA0AF646EA0906CBF820607D
:100B700004680E7924EA0C0406F00306BE402643FE
:100B800006604C68E40056D52E4C266846F4804634
:100B90002660246822F0030604F4804400942A4C62
:100BA0003444A446D4F808489607370F0EFA07F6DF
:100BB000B443264EB04201D1002615E0244EB04287
:100BC00001D1012610E0234EB04202D102260BE0F3
:100BD00031E0214EB04201D1032605E01F4EB04264
:100BE00001D1042600E00726BE402643CCF8086861
:100BF0001B4E34684F689C43FF0300D51C43346090
:100C0000174E361D34684F689C43BF0300D51C4304
:100C10003460134E083634684F689C43FF0200D599
:100C20001C4334600E4E0C3634684F689C43BF0240
:100C300000D51C433460521C102AFFF451AFBDE8AC
:100C4000F88F0000443802400030014000000240AC
:100C50000004024000080240000C02400010024064
:100C6000003C01400069084000D0012070470AB1F3
:100C7000816170470904FBE7014880687047000004
:100C80003400002070B5040025D094F83D00002504
:100C900020B984F83C50204600F04EF9242084F816
:100CA0003D002068016821F00101016020680168B1
:100CB00041F4004101602068016821F400410160B5
:100CC00000F0E0FA4D4A6168914201D84C4900E0D9
:100CD0004C49884201D2012070BD4B492368B0FBCA
:100CE000F1F15E6826F03F060E435E606368934252
:100CF00006D94FF4967359434FF47A73B1FBF3F16D
:100D00002368491C1E6A26F03F0631431962616858
:100D1000914210D84900401EB0FBF1F2521CC2F3C0
:100D20000B02042A01D2042022E0B0FBF1F0401CA7
:100D3000C0F30B001CE0A268F2B301EBC10303EBAC
:100D40000116431EB3FBF6F35B1C43F480431B0503
:100D500049D092B301EBC10202EB0111401EB0FB7E
:100D6000F1F0401CC0F30B0040F4804040F4004020
:100D70002168CA694CF6FF739A431043C861D4E9ED
:100D8000071001432068026822F0C002114301608D
:100D9000D4E9030101432068826848F2FF339A4393
:100DA00011438160D4E9050108432168CA6822F033
:100DB000FF021043C86001E00EE016E02068016801
:100DC00041F0010101602564202084F83D00256385
:100DD00084F83E50002070BD01EB4106431EB3FB7A
:100DE000F6F35B1CB3E70120C2E701EB4101401EB3
:100DF000B0FBF1F0401CC0F30B00B7E7A086010088
:100E000080841E0000093D0040420F002DE9F84F8C
:100E10001F4690468A460446DDF82890FFF72CFFCF
:100E2000054694F83D0020287FD11923012240492E
:100E30002046009501F018F9002876D194F83C007E
:100E4000012872D0012084F83C0020680168C9079D
:100E500003D1016841F0010101602068016821F4BB
:100E600000610160212084F83D00102084F83E00DC
:100E700000262664C4F824806785608D20852D486F
:100E8000E0622B464A465146204601F079F890B977
:100E9000206841698069009036E02A46494620462C
:100EA00001F061F950B1206C042804D12068016878
:100EB00041F4007101600120BDE8F88F606A21688B
:100EC00000780861606A401C6062618D491E61851E
:100ED000218D491E89B2218522685369DB435B0756
:100EE0000BD451B100781061606A401C6062608D63
:100EF000401E6085208D401E20852A46494620469A
:100F000001F08CF80028CED1208D0028C5D154F8EE
:100F10003D0B016841F400710160202004F81E09B6
:100F2000E67766770020C7E7FFE70220C4E7000006
:100F3000020010000000FFFF10B586B00446142127
:100F40006846FFF7EFF913492068884220D112481C
:100F5000016841F0020101600068694600F002008A
:100F60000590C020009012200190012002900320E3
:100F70000390042004900948FFF7AAFD06481030AA
:100F8000016841F400110160006800F40010059050
:100F900006B010BD0054004030380240000402404A
:100FA0000248816802781144816070473400002053
:100FB0000B4810B5016841F400710160016841F40B
:100FC00080610160016841F480710160032000F0DC
:100FD0008DF8002000F006F800F03EF8002010BD6B
:100FE000003C024010B5014688B000221C2000F0F1
:100FF0005DF81C2000F04CF814480024016841F012
:1010000001010160006805A900F001000690684632
:1010100000F018F900F036F90D494000B0FBF1F18D
:101020000C484FF08042491E026040F2E732C0E9AE
:101030000324C0E9011400F065FB10B1012008B0E1
:1010400010BD044800F08CFBF9E700004038024076
:1010500040420F00940100200C4882B0016841F426
:1010600080410160006800F4804000900748001F44
:10107000016841F0805101600068002200F080505A
:1010800000900F21901E02B000F010B844380240CA
:10109000002809DB00F01F02012191404009800077
:1010A00000F1E020C0F8001170470000F0B40E4BD2
:1010B0001B680C46C3F30223C3F10705042D00D9B6
:1010C0000425191D072901D2002300E0DB1E01269B
:1010D00006FA05F1491E214099409E40761E1640B1
:1010E0003143F0BC01F052BC0CED00E0064900F0C9
:1010F000070208684FF6FF03184040EA0220034A3F
:1011000010430860704700000CED00E00000FA0595
:101110002DE9F0470E46050065D0DFF81481D8F8B8
:101120000000F7B200F00F00B04207D288F800705C
:10113000D8F8000000F00F00B04254D128683D4CB0
:10114000810712D5400703D5206840F4E0502060A5
:101150002878000703D5206840F4604020602068AC
:10116000A96820F0F000084320602878C0072DD03F
:10117000304968680839012812D0022813D00328A2
:1011800011D00968890700292DDA216821F00301AF
:1011900001432160FFF770FD814641F2883A0EE07D
:1011A00009688903EFE709688901ECE7FFF764FD47
:1011B000A0EB0901514502D90320BDE8F087206862
:1011C000696800F00C00B0EB810FEFD1D8F8001087
:1011D000404601F00F01B14207D90770006800F0E6
:1011E0000F00B04201D00120E7E72878400705D57D
:1011F0002068E96820F4E050084320602878000760
:1012000006D52068296920F4604040EAC1002060CA
:1012100000F058F82168084AC1F30311515CC84036
:101220000649086006480068FFF7DCFE0020C4E7B6
:10123000003C024008380240D8540008400000201A
:10124000380000200F2202600C4A136803F00303E9
:101250004360136803F0F0038360136803F4E05302
:10126000C36012684FF4E05303EAD20202610448FB
:10127000006800F00F000860704700000838024066
:10128000003C02400448054900680968044AC1F36B
:101290008221515CC840704740000020083802405D
:1012A000E85400080448054900680968044AC1F385
:1012B0004231515CC840704740000020083802406D
:1012C000E8540008154810B5006810F00C021448E6
:1012D00013D01449042A0FD0082A0ED10F4C241F12
:1012E0002268236802F03F025B0207D52068C0F342
:1012F0008810A0FB010106E0084610BD2168C1F37B
:101300008811A1FB00010023FEF7C2FF2168C1F391
:101310000141491C4900B0FBF1F010BD0838024002
:101320000024F40040787D012DE9F84F040076D0C8
:101330002078DFF838A3CE4DC00749D0DAF8001086
:101340005046C1F38101012908D00068C0F3810033
:1013500002280AD1281D0068400206D528688003AB
:1013600036D560680028E2D032E06068B0F5803F92
:1013700010D0B0F5A02F286810D020F4803028605D
:10138000286820F4802028606068A0B1FFF774FC12
:1013900006460CE0286840F48030F4E740F48020F2
:1013A0002860F7E7FFF768FC801B642873D828687B
:1013B0008003F7D50CE0FFF75FFC064605E000BFB1
:1013C000FFF75AFC801B6428F0D828688003F7D404
:1013D0002078DFF8A08280074FF000093ED5DAF8C8
:1013E0000010504611F00C0F09D00068C0F38100C6
:1013F00002280BD19D48001F0068400206D42868CF
:10140000800715D5E068012809D111E0E068B8B17E
:101410000120C8F80000FFF72FFC064605E020E198
:10142000FFF72AFC801B0228C0D828688007F7D560
:101430002868216920F0F80040EAC10028600DE02A
:10144000C8F80090FFF718FC064604E0FFF714FC0C
:10145000801B02281FD828688007F7D4207800074F
:1014600022D5824E844861696C3671B101210160D8
:10147000FFF702FC074604E0FFF7FEFBC01B022853
:1014800009D830688007F7D50EE0C0F80090FFF764
:10149000F3FB074605E082E0FFF7EEFBC01B0228E6
:1014A0007DD830688007F7D42078400768D5DFF80A
:1014B000BCB100270BF1380BDBF80000C0000BD4E7
:1014C000DBF8001041F08051CBF80010DBF8000091
:1014D000012700F080500090684E3068C00510D49D
:1014E000306840F480703060FFF7C6FB009005E084
:1014F000FFF7C2FB0099401A022850D83068C00597
:10150000F6D55A4EA068683601280FD005283068F5
:1015100010D020F001003060306820F0040030600E
:10152000A068B8B1FFF7A8FB00900FE0306840F06A
:101530000100F4E740F004003060F7E7FFF79CFBA0
:101540000099411A41F28830814266D8306880079C
:10155000F4D50EE0FFF790FB009007E0FFF78CFB5F
:101560000099411A41F28830814256D8306880078C
:10157000F4D42FB1DBF8001021F08051CBF800102B
:10158000A069D0B3DAF800205146C2F38102022AE2
:101590004AD00228484607D0C8F8600000E03CE086
:1015A000FFF76AFB04463BE04746C8F86000FFF7D8
:1015B00063FB064605E000BFFFF75EFB801B0228C9
:1015C0002BD828688001F7D4D4E907010843A16A21
:1015D0002B4A490802EB0141626A41EA8211084341
:1015E00094F82C1040EA01612048001F016001209E
:1015F0003866FFF741FB044605E034E0FFF73CFBAB
:10160000001B022809D828688001F7D52BE000BF0D
:10161000FFF732FB001B022802D90320BDE8F88F38
:1016200028688001F4D41EE00128F7D00868E26938
:1016300000F48001914214D1226A00F03F019142EE
:101640000FD147F6C071626A0140914209D1A26A86
:1016500000F44031914204D1E16A00F070608842A8
:1016600001D00120DAE70020D8E700000838024066
:101670000038024000004742800E474200700040A0
:101680000000FFFF7047704770B590F83C20012ABA
:101690002CD0012480F83C40022280F83D200368D1
:1016A0005A689D6822F070060A6832435A60104BEF
:1016B00002689A420ED0B2F1804F0BD00D4B9A4285
:1016C00008D00D4B9A4205D00C4B9A4202D00C4BDD
:1016D0009A4204D1496825F080031943916080F84B
:1016E0003D40002180F83C10084670BD022070BDCE
:1016F000000001400004004000080040000C0040D1
:101700000040014010B5040003D094F83D0010B132
:1017100007E0012010BD002084F83C00204600F0C6
:101720000CF8022084F83D00211D206800F0FEFE28
:10173000012084F83D00002010BD7047022180F890
:101740003D1001688A6802F00702062A03D00A6881
:1017500042F001020A60012180F83D10002070472C
:101760000168CA6842F00102CA600068816801F03D
:101770000701062903D0016841F001010160002042
:101780007047000070B50546007F012822D1274C24
:10179000207870B101281DD10021284600F027FAD9
:1017A0006061296800264E622169884213D9401A77
:1017B00019E00021284600F01AFA2061012020706B
:1017C0002868016A21F00A0101622868016A41F073
:1017D0000201016270BD814201D8A06904E04FF6A8
:1017E000FF72511A0844A061FEF719FE9FED101B0D
:1017F00053EC112BFEF7A1FD9FED0F1B53EC112BAA
:10180000FEF79BFDFEF718FE607026702868016ADF
:1018100021F00A0101622868016A01620848006833
:10182000C16821F00201C16070BD0000000000200D
:101830009CC420B07268A13F000000000000E03F9F
:10184000140100202DE9F041044690F83C000D46BB
:1018500001283DD0012684F83C60022084F83D0038
:10186000AAB3042A46D02068082A55D0D5E9002713
:10187000E968036A23F480530362D0F81CC0036A4A
:101880002CF4407C4CEA07274FF6FF7C27F4704786
:101890000CEA013139434FF4204723F4204307EA8F
:1018A00002321A43C16102622068C16921F44061B9
:1018B000C1612068C169AA6841EA0221C0F81C1010
:1018C00084F83D60002084F83C00BDE8F08101E030
:1018D0000220FAE7D5E90012EB68206800F080FEEC
:1018E0002068816921F00C01816120688169AA6802
:1018F00011430FE0D5E90012EB68206800F0A6FE66
:101900002068816921F44061816120688169AA6849
:1019100041EA02218161D3E7D5E9002C2F7B016ADE
:1019200021F480710162C169036A21F0030141EA77
:101930000C0121F0F00C39074FF420674CEA1161DB
:1019400023F4206307EA02221A43C161026220687D
:10195000C16921F00C01C1612068C169AA68114305
:10196000ACE710B5040003D094F83D0010B107E0D7
:10197000012010BD002084F83C00204600F00CF847
:10198000022084F83D00211D206800F0CFFD0120D9
:1019900084F83D00002010BD10B586B00446142127
:1019A0006846FEF7BFFC1B492068884230D11A48C0
:1019B0000021026842F001020260006800F00100AC
:1019C000059015481438026842F010020260006861
:1019D00000F0100005904FF4007000900220CDE957
:1019E00001010120CDE9031069460C48FFF770F8AA
:1019F000002205211920FFF759FB1920FFF748FBAA
:101A0000002205211B20FFF751FB1B20FFF740FBA5
:101A100006B010BD000001404438024000100240F2
:101A200010B50268044631B1042908D008291AD03B
:101A30000C2908D11BE0D06840F0020002E0D06819
:101A400040F00400D0600122206800F0BBFD206857
:101A5000816801F00701062903D0016841F0010106
:101A60000160002010BDD06840F00800EAE7D068AF
:101A700040F01000E6E770B50446006801694FF0D9
:101A80000005C943890715D4C168C943890711D422
:101A9000E91E0161012020772068806980072046C7
:101AA00002D0FFF76FFE04E000F098F8204600F047
:101AB00096F8257720680169C943490717D4C1689A
:101AC000C943490713D46FF0040101610220207754
:101AD0002068806910F4407F204602D0FFF752FE54
:101AE00004E000F07BF8204600F079F825772068C4
:101AF0000169C943090716D4C168C943090712D44B
:101B00006FF008010161042020772068C069800718
:101B1000204602D0FFF736FE04E000F05FF82046D2
:101B200000F05DF8257720680169C943C90617D41C
:101B3000C168C943C90613D46FF0100101610820C0
:101B400020772068C06910F4407F204602D0FFF75C
:101B500019FE04E000F042F8204600F040F8257736
:101B600020680169C943C90708D1C168C943C907C9
:101B700004D1891E0161204600F032F82068016915
:101B8000C943090609D4C168C943090605D46FF0E1
:101B9000800101612046FFF775FD20680169C94396
:101BA000490609D4C168C943490605D46FF040010C
:101BB0000161204600F030F820680169C9438906B8
:101BC0000BD4C168C943890607D46FF020010161B5
:101BD0002046BDE87040FFF756BD70BD70477047A6
:101BE0000068B0F1804F01D1FFF7DAB970470246C3
:101BF000002041B1042909D008290AD00C2901D1BB
:101C00001068006C70471068406B70471068806BFC
:101C100070471068C06B70477047704770B50268B6
:101C200004461068D168536910F00F0F52D003F0CA
:101C3000010501F490762E435FD0C20705D0CA0596
:101C400003D5E26B42F00102E263420705D5DA07F1
:101C500003D0E26B42F00202E263820705D5DA07A5
:101C600003D0E26B42F00402E263020707D501F001
:101C700020022A4303D0E26B42F00802E263E26BE7
:101C8000002A33D0800604D5880602D5204600F00D
:101C90000EFD20684069E16BC0F38010090700D495
:101CA00028B3204600F0F5FC2068416949061AD5A2
:101CB000416921F040014161606BA0B11B490165A0
:101CC000606BFEF7E1FE002810D0606B016DBDE88F
:101CD00070400847830610D58B060ED52046BDE818
:101CE000704000F0E4BC2046FFF797FF70BD20462F
:101CF000FFF793FF0020E06370BD030606D50B06D7
:101D000004D52046BDE8704000F0B0BD4006F3D5D4
:101D10004806F1D5D168204621F04001D16020214C
:101D200084F8391000F0F9F870BD0000832600082F
:101D300070B5040004D094F83900002510B106E015
:101D4000012070BD84F83850204600F023F824208C
:101D500084F839002068C16821F40051C160204630
:101D600000F0F0FC2068016921F4904101612068D5
:101D7000416921F02A0141612068C16841F40051A4
:101D8000C160E563202084F8390084F83A0000201F
:101D900070BD000010B586B0044614216846FEF7F9
:101DA000C1FA17492068884228D11648016841F4D1
:101DB00000310160006800F40030059011481038CF
:101DC000016841F0010101600068694600F001000E
:101DD00005900C2000900220019001200290032029
:101DE0000390072004900848FEF772FE00220521A8
:101DF0002620FFF75BF92620FFF74AF906B010BD51
:101E000000440040403802400000024090F83A3060
:101E1000202B22D1F9B1F2B190F83830012B1CD02F
:101E200081628285C2850021C163222280F83A2026
:101E300080F838100168CA6842F48072CA6001688C
:101E40004A6942F001024A610068C16841F020011C
:101E5000C160002070470120704702207047704722
:101E60002DE9F843044690F839001F4616460D4602
:101E7000202850D1B5B1AEB194F8380001284AD02D
:101E8000012084F838004FF00008C4F83C8021207D
:101E900084F83900FEF7F0FEA6848146E68484F8D3
:101EA000388026E00120BDE8F883E08C401EE08405
:101EB000A0684B46B0F5805F4FF000024FF0800104
:101EC0002046009703D000F002FDE8B90DE000F0D5
:101ED000FEFCC8B928882168C0F308004860206962
:101EE00008B16D1C05E0AD1C03E0216815F8010B7D
:101EF0004860E08C0028D8D14B4600224021204683
:101F0000009700F0E4FC08B10320CCE7202084F81F
:101F100039000020C7E70220C5E7704710B50A4C1A
:101F2000012280212046FEF7A2FE0A2001F0ACF932
:101F3000002280212046FEF79AFE04480068C1680E
:101F400041F00201C16010BD0010024014010020E8
:101F5000FEE701684A69D24352050FD46FF48062EC
:101F60004A61002140F8301F2022427381730269C8
:101F700042F00402026101730120704700207047A3
:101F8000F8B50446C06A1E460D461746082807D015
:101F9000012805D010F5803F02D0206B122804D113
:101FA0002068016841F480710160134600224FF0FF
:101FB00001112046009600F057F840B120680068F3
:101FC000C00502D54FF4007020640320F8BD2069DD
:101FD000B0F5804F0ED00620216800EAD51040F001
:101FE000F000086133463A460B49204600F070F88D
:101FF00078B902E005F0FE0000E0E8B2216808616F
:10200000054933463A46891F204600F061F800280A
:10201000DCD00120F8BD00000800010070B51646B4
:102020000D4604460DE02046FFF793FF08B101205E
:1020300070BD681C05D0FEF71FFE801BA84207D8A4
:1020400035B120684069C0434007ECD4002070BD22
:10205000002044F8300F20216173A073216941F002
:10206000200121612073E2E72DE9F0471E469046EA
:102070000D460446C1F30747DDF8209008E0701CC8
:1020800006D0FEF7F9FDA0EB0900B0420FD876B1FB
:102090002068012F18D0806925EA00000004000C98
:1020A00014D000214145EAD00020BDE8F08700208F
:1020B00044F8300F20216173A073216941F02001A1
:1020C000216120730120F0E74069E5E70121E9E79C
:1020D0002DE9F0479A4691460E46044600254FF0FA
:1020E0002008C1F3074725E020684069C043400548
:1020F00014D42068016841F40071016021686FF414
:1021000080604861256384F83D8084F83E50206CEF
:1021100040F00400206484F83C501FE0B9F1FF3F18
:1021200008D0FEF7A9FDA0EB0A0149450CD8B9F18A
:10213000000F09D02068012F13D0806926EA000023
:102140000004000C0BD0CFE744F8305F84F80D801A
:10215000A573206940F02000206125730120BDE8AF
:10216000F0874069EAE770B516460D4604460DE073
:102170002046FFF7EEFE08B1012070BD681C05D0B7
:10218000FEF77AFD801BA84207D835B12068406968
:10219000C0430006ECD4002070BD002044F8300F8E
:1021A00020216173A073216941F020012161207316
:1021B000E2E70000F0B587B014216846FEF7B2F8F8
:1021C0001D480024016841F001010160016801F02F
:1021D00001010591016841F010010160016801F001
:1021E00010010591016841F0020101600068134E81
:1021F00000F002000590012202213046FEF737FD73
:102200000F4F002280213846FEF731FD022000905A
:102210000125CDE90154694630460394FEF758FC88
:1022200080200090CDE90154694638460394FEF7BA
:102230004FFC07B0F0BD0000303802400000024003
:102240000010024010B586B0002414480594049490
:102250000094019402941049039401604721C0E95D
:1022600001144FF6FE71C0E9031444618461FFF765
:1022700078FB049404A909480594FFF705FA0120A6
:10228000CDE9004002940022694604480394FFF718
:10229000D9FA06B010BD0000000001401401002072
:1022A000FEE7704730B585B00C46054614216846F8
:1022B000FEF738F80021CDE9004102916946284631
:1022C000FEF706FC05B030BD30B585B00C460546BE
:1022D00014216846FEF726F80120CDE900400020D1
:1022E000039069462846FEF7F3FB05B030BD0000B9
:1022F0004FF0FF350C4C2946206B01F0F5F901F049
:10230000A3F9014609A000F01DFB00F0C9FF01F090
:102310009BF901460CA000F015FB206B01F076FA4A
:10232000322001F077F9E6E70000002044485431FC
:10233000315F5461736B2073746172743A2040256D
:102340006C75200A0000000044485431315F54612C
:10235000736B2073746F703A2040256C75200A00EF
:102360004FF0FF350C4C2946206B01F0BDF901F010
:102370006BF9014609A000F0E5FA00F0CBFF01F08F
:1023800063F901460CA000F0DDFA206B01F03EFA83
:10239000322001F03FF9E6E70000002048435352A5
:1023A00030345F5461736B2073746172743A2040EF
:1023B000256C75200A0000004843535230345F54A6
:1023C00061736B2073746F703A2040256C75200A1E
:1023D000000000004FF0FF350C4C2946206B01F047
:1023E00083F901F031F9014609A000F0ABFA00F0E1
:1023F000C5FF01F029F901460BA000F0A3FA206BFC
:1024000001F004FA322001F005F9E6E700000020AF
:102410004C43445F5461736B2073746172743A204F
:1024200040256C75200A00004C43445F5461736B77
:102430002073746F703A2040256C75200A000000EC
:1024400010B5502080F31188BFF34F8FBFF36F8F0B
:1024500002F026FE18B104494FF0805008600020B9
:1024600080F3118810BD000004ED00E030B593B09A
:1024700030216846FDF756FF14210CA8FDF752FFE6
:1024800018480025016841F080510160006800F0A3
:10249000805011901448016841F440410160006887
:1024A000022400F440401190012003901020049079
:1024B000009406940820CDE907504820CDE909048E
:1024C00004200B906846FEF72FFF0CA90F2081E82F
:1024D0003100E002CDE90F0502210CA8FEF718FE3D
:1024E00013B030BD4038024000700040054801681C
:1024F00041F47001016003494FF0006080390860C9
:102500007047000088ED00E00148FFF7B4BA000012
:10251000140100200148FFF7AEBA000014010020AA
:102520000148FFF7A8BA000094010020F0B5026846
:102530001D4B1E4C9F031E4D1E4E984207D0B842A5
:1025400005D0A04203D0A84201D0B04204D122F06D
:10255000700C4A6842EA0C02984210D0B8420ED081
:10256000A0420CD0A8420AD0B04208D0124CA042DF
:1025700005D0124CA04202D0114CA04203D122F44B
:102580004074CA6822434C6922F0800222430260F0
:102590008A68C2620A688262984201D1096901634D
:1025A00001214161F0BD0000000001400004004035
:1025B00000080040000C0040004001400044014081
:1025C0000048014010B501F01F030121046A994041
:1025D0008C430462016A9A401143016210BD0000FD
:1025E00070B5046A24F0010404628469056A124E1D
:1025F000B0420ED0B0F1804F0BD0104EB04208D098
:102600000F4EB04205D00F4EB04202D00E4EB04237
:1026100003D124F00304144301E044F001041A0739
:1026200024F0F00444EA126225F00A0301F00A01E2
:1026300019438261016270BD000001400004004046
:1026400000080040000C00400040014030B5046A22
:1026500024F0100404628469056A24F4407444EA96
:10266000022222F470444FF6FF7202EA0332224340
:10267000A02425F0A00304EA01111943826101623C
:1026800030BD10B5806B0021C185C184FFF7C5FA4C
:1026900010BD0168CA6822F49072CA6001684A6974
:1026A00022F001024A61202180F83A10704710B5EB
:1026B00090F83A10222901D0022010BD8168B1F5AE
:1026C000805F11D00169002901681FD0496801F0BD
:1026D0007F03816A4A1C82620B70C18D491E090406
:1026E000090CC18518D02BE00269816A002A0268B2
:1026F000526805D0D2B20A80816A491C8162ECE737
:10270000C2F308020A80816A891CF7E74A68816A75
:102710004B1C83620A70E0E70168CA6822F020025D
:10272000CA600168CA6822F48072CA6001684A6996
:1027300022F001024A61202180F83A10FFF78FFB56
:10274000002010BD2DE9F041044600680169E268EF
:1027500021F44051114301612169A068E2690843F5
:102760006169114308432168CA6849F20C639A43BE
:102770000243CA6020684169A26921F44071114393
:102780004161E069192764253226B0F5004F354ACA
:10279000354920684FF0000806D0884201D09042A9
:1027A00036D1FEF77FFD35E0884201D0904202D15C
:1027B000FEF778FD01E0FEF765FD61684A18A0FBB1
:1027C000070148EB0803FDF763FD0146B0FBF5F098
:1027D0000201B1FBF5F06FF01803584301EB8000E4
:1027E00006EBC000B0FBF5F000F0F80002EB400291
:1027F000B1FBF5F0584301EB800006EBC000B0FBE5
:10280000F5F000F00700216810448860BDE8F08111
:10281000FEF738FD61688B0F8A00A0FB0701FDF70A
:1028200037FD0146B0FBF5F06FF01802504301EBA5
:10283000800006EB0010B0FBF5F000F0F002B1FBF9
:10284000F5F002EB0012B1FBF5F06FF018035843FE
:1028500001EB800006EB0010B0FBF5F000F00F007C
:10286000D1E70000001401400010014090F8391039
:10287000212901D0022070478168B1F5805F016A8B
:102880000BD04A1C0262026809785160C18C491E53
:102890000904090CC1840ED017E009880268C1F34D
:1028A0000801516001690029016A02D0491C0162D6
:1028B000ECE7891CFBE70168CA6822F08002CA6065
:1028C0000068C16841F04001C160002070472DE9F7
:1028D000F041984617460E460446069D1DE0681CCA
:1028E0001BD02DB1FEF7C8F9A0EB0800A84214D9FF
:1028F0002068C16821F4D071C1602068416921F06D
:1029000001014161202084F8390084F83A00002058
:1029100084F838000320BDE8F0812068006836EABA
:10292000000004D00020B842D9D00020F3E70120F5
:10293000F9E700000148FFF771B9000054010020D9
:10294000FEE700000FB4054B10B503A9044A029836
:1029500000F0FEF810BC5DF814FB00009533000891
:10296000BC0000200FB4084B10B504A902AA0398BC
:1029700000F0EEF8044602A9002000F080FC20469A
:1029800010BC5DF814FB00007F3200080907090E37
:10299000002804DB00F1E02080F80014704700F00C
:1029A0000F0000F1E02080F8141D704702E008C815
:1029B000121F08C1002AFAD170477047002001E0B9
:1029C00001C1121F002AFBD1704700002DE9FF5FF3
:1029D00082B00021DDE90430020DDDF840B0034390
:1029E00018D044F61050A2F2FF3242431514119849
:1029F00001281FD0A5EB0B00401C5FEA000A4FF036
:102A000000064E4FDFF83891B046504615D5CAF152
:102A1000000413E0119801244AA3012801D16FEAB0
:102A20000B010298119AC0E90031C0E9024206B0D8
:102A3000BDE8F09FCBF10000DFE704460021404AEB
:102A4000491842EB0450CDE9001012E0E00707D02E
:102A500032463B4640464946FDF76FFC8046894674
:102A600032463B4610461946FDF767FC06460F46C0
:102A70006410002CEAD1DDE90401DDE90023BAF19C
:102A8000000F06DAFDF759FC42464B46FDF755FCB0
:102A900005E0FDF736FE42464B46FDF732FE0446A2
:102AA0000E460022284BFDF7B3FE03D84FF0FF304F
:102AB000014607E00022254B20463146FDF77AFD0E
:102AC000FDF78EFE102409E0002C0ADB0A22002309
:102AD000FDF7DEFB039B30321A55641E50EA0102FB
:102AE000F2D1641C039AC4F111031444119A012A0F
:102AF00003D0012208430DD10AE0084304D000208E
:102B00004FF0110B119072E7A3EB0B056D1E0DE05A
:102B10005B4504DD4FF0000205F1010504E003DA36
:102B20004FF00002A5F10105002AECD0029811999E
:102B3000C0E90231C0E9004579E700000000144017
:102B40000000F03F300000000000F0430000E03FD4
:102B50002DE9FF4F95B09B468946064600250FE2BA
:102B6000252877D100242746F84A0121059400E062
:102B7000044316F8013F203B01FA03F01042F7D15D
:102B800030782A2811D06FF02F033078A0F130026E
:102B9000092A16D8059A44F0020402EB820203EBDC
:102BA00042021044761C0590EFE759F8042B059279
:102BB000002A03DA504244F40054059044F0020421
:102BC000761C30782E2816D116F8010F44F0040434
:102BD0002A280DD06FF02F023078A0F13003092B96
:102BE00009D807EB870302EB4303C718761CF3E70A
:102BF00059F8047B761C30786C280FD006DC4C2802
:102C000017D068280DD06A2814D104E0742810D099
:102C10007A280FD10DE044F400140AE044F4801443
:102C200001E044F440147278824202D104F5801429
:102C3000761C761C307866280BD013DC582877D0A9
:102C400009DC002875D04528F6D04628F4D047285E
:102C50001AD19DE118E0632835D0642879D0652821
:102C600012D195E1702873D008DC6728F1D069286B
:102C70006FD06E280DD06F2806D1B5E073282CD008
:102C8000752875D0782874D05A46179990476D1CCE
:102C900075E1C4F30250022809D003280DD0D9F8F9
:102CA000001004280DD00D6009F1040967E1D9F87E
:102CB0000010EA17C1E90052F6E7D9F800100D80BC
:102CC000F2E70D70F0E719F8041B8DF800100020F2
:102CD0008DF80100EA46012003E059F804AB4FF0FB
:102CE000FF3061074FF0000102D40DE008F101014F
:102CF0008846B9420FDA8045F8DB1AF80810002937
:102D0000F4D108E008F1010188468142FADB1AF8A3
:102D100008100029F6D105985B46A0EB080721466C
:102D20003846179A00F094FA284400EB080507E0AB
:102D30004DE029E10DE01AF8010B5A46179990472A
:102D4000B8F10108F7D25B4621463846179A13E1DD
:102D500042E00A220092C4F302524FF0000A022A13
:102D600008D059F804CB032A4FEAEC710AD00DE0E1
:102D700029E02AE009F1070121F00702F2E802C187
:102D8000914609E00FFA8CFC4FEAEC71042A03D15A
:102D90004FFA8CFC4FEAEC71002907DA0A46002151
:102DA000DCF1000C61EB02012D2202E0220504D5CA
:102DB0002B228DF80420012203E0E20701D020221B
:102DC000F7E7904659E00A2102E010220DE01021B9
:102DD0004FF0000A00910BE010224FF0000A44F07F
:102DE00004040827009203E008224FF0000A009232
:102DF000C4F30252022A05D059F804CB0021032A59
:102E000008D009E009F1070121F00702F2E802C148
:102E1000914605E01FFA8CFC042A01D10CF0FF0C4E
:102E20004FF00008220728D5702806D0009B83F0B9
:102E3000100353EA0A0305D00EE040228DF8042067
:102E4000012208E05CEA010206D030228DF804205D
:102E50008DF8050002229046009B83F0080353EA98
:102E60000A030AD15CEA010201D1620705D53022CA
:102E70008DF804204FF001087F1E582804D034A09C
:102E800003900EA802900DE036A0F9E75346604685
:102E9000009AFDF7FDF984460398825C0298401E73
:102EA000029002705CEA0100F0D1029806A9081AAB
:102EB00000F1200A600702D524F4803400E00127E5
:102EC000574502DDA7EB0A0000E0002000EB0A01F5
:102ED000009005984144401A0590E00306D45B46F3
:102EE0002146179A059800F0B3F90544002706E03B
:102EF00001A85A46C05D179990476D1C7F1C474535
:102F0000F6DBE0030CD55B462146179A059800F0E6
:102F10009FF9054404E030205A46179990476D1CEC
:102F20000099481E00900029F5DC08E002980299FB
:102F30005A460078491C0291179990476D1CBAF1C6
:102F40000001AAF1010AF1DC65E100000928010095
:102F5000303132333435363738396162636465660F
:102F600000000000303132333435363738394142D1
:102F7000434445460000000000F058F90544761C23
:102F8000307800287FF4ECAD19B02846BDE8F08F0A
:102F9000620700D4062709F1070222F0070CFCE8BB
:102FA0000223E14603F000485FEA080C02D00FF26A
:102FB000702C0DE05FEA045C02D50FF2682C07E08C
:102FC0005FEAC47C02D00FF2602C01E0AFF2700C1B
:102FD0004FF0FF3823F00043CDF850C065280CD0E7
:102FE00006DC452809D046281DD047283DD13DE0C4
:102FF000662818D067287ED138E00021112F01DB28
:10300000112000E0781CCDE9000106A90EA8FFF709
:10301000DDFCDDE90F010E9A03910021009207F11A
:10302000010A04914DE04FF000400097CDE90110F6
:1030300006A90EA8FFF7CAFCDDE90F0203920E9B5A
:1030400011990022DDF80CA00093049211B9791CAB
:1030500000EB010AB7EB0A0004D4C0F1FF3007F11E
:10306000010A0490AAEB0700019044E0012F00DA66
:1030700001270021112F01DD112000E03846CDE9A4
:10308000000106A90EA8FFF7A1FCDDE90F010E9AC9
:103090000391002104910092BA4621070CD40399B0
:1030A000514500DA8A46BAF1010F05DD009AAAF10E
:1030B0000101515C302908D0B84202DA10F1040F46
:1030C00006DA0121CDE9011015E0AAF10101E9E7D5
:1030D000002805DC049901440491AAEB000102E0F8
:1030E000411C514500DD8A460499401A401C01905C
:1030F0004FF000400290200704D40198504501DBB6
:10310000CDF8048000208DF84F0002980DF14F0794
:10311000B0F1004F25D02B200E9002984FF00208FE
:1031200000280CDA404202902D200E9007E00A2180
:103130000298FDF7ADF93031029007F8011DB8F1A2
:103140000001A8F10108F2DC02980028EFD1791EF5
:103150000E980870307800F0200040F0450007F825
:10316000020D12A8C01B00F107081498007800B1E6
:10317000012000EB0A01019801EBE0710598414440
:10318000401A401E0590E00306D45B462146179A7C
:10319000059800F05DF805441498007818B15A4677
:1031A000179990476D1CE00324D55B462146179A7A
:1031B000059800F04DF805441CE00498002807DB52
:1031C000DDE90301884203DD0098405C179901E0C6
:1031D000179930205A469047049805F10105401C84
:1031E00004900198401E019004D12E205A46179950
:1031F00090476D1CBAF10001AAF1010ADDDC05E07F
:1032000017F8010B5A46179990476D1CB8F1000149
:10321000A8F10108F4DC5B462146179A0598ABE655
:103220002D0000002B000000200000002DE9F041DF
:10323000044600251E461746880404D405E0394696
:103240002020B0476D1C641EF9D52846BDE8F081EA
:103250002DE9F041044600251E469046C80301D5DD
:10326000302700E02027880404D505E04146384691
:10327000B0476D1C641EF9D52846BDE8F0810A6888
:10328000531C0B6010707047044900220B685A628F
:1032900009684A6A8242FCD370470000140100208A
:1032A00000B589B024220DA16846FDF722F84FF041
:1032B000FF33232269461248FEF7D2FDFDF75AFB81
:1032C0001048C069FDF7D1F841EC100B0EA053EC8B
:1032D000102BFFF737FB09B000BD00007461736B62
:1032E000312072656164696E6720746865204448A6
:1032F0005431312073656E736F722E2E2E0A0000CA
:10330000540100200000002054454D503A2025660D
:10331000200A000000B589B024220AA16846FCF703
:10332000E8FF4FF0FF33242269460F48FEF798FD6F
:10333000FEF7F4FD0D4841780DA0FFF703FB09B03F
:1033400000BD00007461736B322072656164696E48
:103350006720746865204843535230342073656E8B
:10336000736F722E2E2E0A005401002000000020E0
:10337000444953543D202566200A0000044810B5F6
:1033800090ED070AFDF756FBBDE81040FDF71EBBA8
:103390000000002013B54FF0FF33012269460248B8
:1033A000FEF75EFD00981CBD5401002010B5802082
:1033B00000F050F80024202000F06CF8641C462C2B
:1033C000F9DB10BD10B53220FDF770FB302000F0A6
:1033D00041F80520FDF76AFB302000F03BF80120A2
:1033E000FDF764FB302000F035F80A20FDF75EFBA6
:1033F000202000F02FF80A20FDF758FB282000F0CD
:1034000029F80120FDF752FB082000F023F80120E5
:10341000FDF74CFB012000F01DF80120FDF746FBF5
:103420000120FDF743FB062000F014F80120FDF712
:103430003DFBBDE810400C2000F00CB810B1012895
:1034400005D102E041F0800101E041F0C001C8B2C5
:10345000AFF300801CB500F0F00141F00C028DF8D4
:10346000042041F0080100018DF8051040F00C0126
:103470008DF8061040F008008DF8070064200090D9
:10348000042301AA4E210248FDF7C0FC1CBD000028
:10349000C00000201CB500F0F00141F00D028DF8D5
:1034A000042041F0090100018DF8051040F00D01E4
:1034B0008DF8061040F009008DF807006420009098
:1034C000042301AA4E210248FDF7A0FC1CBD000008
:1034D000C000002010B5044602E0641CFFF7DAFFCC
:1034E00020780028F9D110BDA0B0FDF761FDFEF7EE
:1034F000BDFFFEF75FFE3B483949002401603A49B1
:10350000C0E901144FF48041C0E903414461846182
:10351000C4610462FDF7B6FBFEF794FE31483349FF
:10352000943001604FF41651C0E901140C21C460BD
:10353000C0E904418461C461FEF7FAFB2948012215
:103540002B499430FEF762FC26485430FEF7F6F81B
:10355000244800215430FEF763FAFFF733FF25A01B
:10356000FFF7B8FF4FF4FA60FDF7A0FAFFF71EFF70
:1035700000F07EF823480DF16C0C0FC88CE80F00AA
:1035800001211BAA084600F0E9F8194C1D49E41E68
:103590002422206310316846FCF7ABFE6A46002106
:1035A000194800F06BF9174960622422343109A8E8
:1035B000FCF79FFE09AA0021144800F05FF91149A9
:1035C000A0622422583112A8FCF793FE12AA00210F
:1035D0000F4800F053F9E06200F066F8FEE70000E3
:1035E00000540040C0000020A086010000440040BC
:1035F00003000020494E495449414C495A494E471D
:103600002E2E00005C540008F122000861230008FF
:10361000D523000810B5EFF3058149B9EFF3108108
:1036200031B908490968022905D1EFF3118111B1B7
:103630006FF0050403E0002408B100F001FF20460C
:1036400010BD000094000020EFF3058048B9EFF3AF
:10365000108030B905480068022804D1EFF31180CA
:1036600008B101F015BD01F00DBD0000940000206F
:10367000EFF3058058B9EFF3108040B909490868A5
:10368000022801D030B109E0EFF3118030B16FF0C2
:103690000500704701200860002070474FF0FF30A0
:1036A000704700009400002010B5EFF3058060B96A
:1036B000EFF3108048B90B490868022802D00128AE
:1036C00006D00BE0EFF3118040B16FF0050010BDA4
:1036D0000220086000F064FF002010BD4FF0FF30B2
:1036E00010BD000094000020F8B50D460024211FF5
:1036F0004E1C00280ED000BFEFF305824AB9EFF34D
:10370000108232B9134A1268022A17D1EFF31182DC
:10371000A2B10DB10C461BE000216A46009101F0F8
:1037200007FB012813D1009890B10B494FF080504E
:103730000860BFF34F8FBFF36F8F09E0294601F098
:1037400045FB012804D015B16FF0010400E03446B8
:103750002046F8BD9400002004ED00E0F8B51446C2
:1037600003460E464FF00005EFF30580E8BBEFF38C
:103770001080D0BB24480068022802D1EFF31180EA
:1037800098BB93B39E423DD84CB1A0680028E06836
:1037900003D0502836D3012002E008B132E00020E7
:1037A000012B05D010B31846A26801F00EF820E0F6
:1037B00040B103200090002211460120A36801F0CF
:1037C00048F804E003220021012001F01EF8050062
:1037D00018D086B100231A46194601F0B1F8012825
:1037E00009D0284600F0DEFD00250BE0184600F069
:1037F000CFFF050006D00CB1216800E0002128466B
:1038000000F0BCFD2846F8BD9400002038B5002427
:10381000E51E002804D000BFEFF3058169B902E07E
:103820006FF0030423E0EFF3108131B91149096807
:10383000022914D1EFF3118189B100210091694669
:1038400001F08CF9012811D1009880B10A494FF09C
:1038500080500860BFF34F8FBFF36F8F07E00023E6
:103860001A46194601F06CF8012800D02C46204673
:1038700038BD00009400002004ED00E0F0B585B0F4
:103880004FEA01034FF00004EFF305810394A9BB55
:10389000EFF3108191BB22490968022902D1EFF3AD
:1038A000118159BB50B34FF4807618218DF8104028
:1038B00004AD42B3176807B13D4697691FB1394659
:1038C0007F1E382F02D21779FF0702D0002005B0E3
:1038D000F0BD576907B1BE08D2F808C0BCF1000FAF
:1038E0000DD0D4685C2C18D312693AB137B18DE889
:1038F00006103246294601F08CFB03900DE0D76894
:103900005FB912694AB903AACDE90012B2B22946D9
:1039100001F052FB012800D003940398D7E7000080
:10392000940000202DE9F041134C0F4605466669CE
:103930002068001D00F026FC681C07D137B1216803
:10394000BDE8F0410D48091D00F06EBC206835440B
:10395000B5424560216805D2A068BDE8F041091D67
:1039600000F04ABC6068091D00F046FC206B8542EF
:1039700000D22563BDE8F08144000020C406002089
:103980002DE9F041054600F05BFC2D4C2069401C00
:10399000206120682B4F10B1E06930B32BE0256027
:1039A0002069012827D1002606EB860007EB80005E
:1039B00000F014FC761C382EF6D3234800F00EFCE1
:1039C0002148143000F00AFC1F48283000F006FCA3
:1039D0001D483C3000F002FC1B48503000F0FEFB5C
:1039E000194860601430A06005E02068E96AC06A88
:1039F000884200D82560E06A401CE0626864E86A9A
:103A0000A169884200D9A06100EB800007EB80002B
:103A1000291D00F009FC00F033FCE06900280CD0FF
:103A20002068E96AC06A884207D208494FF080508E
:103A30000860BFF34F8FBFF36F8FBDE8F0810000C8
:103A400044000020140200207406002004ED00E071
:103A500038B500F0F5FB104CA068C8B90F4800F06D
:103A6000BDFB0E48143000F0B9FB0C482060143048
:103A700060600A4B00202833009003F150021021AF
:103A80000A2000F0E6FEA06010B105A100F076FC6F
:103A9000BDE8384000F0F4BB80000020D8060020CC
:103AA000546D72510000000030B4026C0B46002AC5
:103AB0000BD0C1681144C1604468A14201D30168C0
:103AC000C16030BC1846FCF714BC30BC70472DE90F
:103AD000F041856B174604460026026C82B1C7B1DF
:103AE000E068FCF706FCE168206C091AE1602268D6
:103AF000914202D26168081AE060022F16D017E0E6
:103B00002068A8B9606801F02FFB064600206060BD
:103B10000EE0A068FCF7EDFB216CA0680844A060F3
:103B20006168884204D32068A06001E005B16D1E81
:103B30006D1CA5633046BDE8F08110B5044690F8D1
:103B4000590058B101280CD002280FD0502080F322
:103B50001188BFF34F8FBFF36F8FFEE7206B00F02C
:103B6000A3FB2046BDE8104000F09EBB10BD000046
:103B700010484FF47051420706D0C01D0D4920F087
:103B80000700411AC1F570510B4A00230144C2E9F4
:103B900000030839103A21F0070111604B600B60F7
:103BA0000B1AC0E9001393604FF000405360D060DF
:103BB00070470000A8140020A8000020144E154CE7
:103BC000A6F29C474FF08058DFF84C9012E000BFFF
:103BD00000F036FBF068C568281D00F0D3FA2069B4
:103BE000401E2061E068401EE06000F049FB28466E
:103BF000FFF7A3FFE0680028EAD138680128F9D967
:103C0000C9F80080BFF34F8FBFF36F8FF2E700005A
:103C1000B00600204400002004ED00E070B51D4611
:103C2000049C51B1C4F80020C4E90F0101212046D1
:103C300000F042FE84F84C5070BD2460F4E72DE99A
:103C4000F0470E46DDE90984174682469100994601
:103C5000089DA522206BFCF75EFB6FF00301206B33
:103C600001EB8701084420F00707780707D05020B0
:103C700080F31188BFF34F8FBFF36F8FFEE72218D9
:103C8000315C82F83410315C11B1401C1028F6D33D
:103C9000002684F84360382D00D33725E562C4E957
:103CA0001356201D00F0A5FA04F1180000F0A1FA47
:103CB0002461C5F138006462A061666584F85860CB
:103CC0004A465146384600F047FA2060B8F1000FE6
:103CD00001D0C8F80040BDE8F087000030B51149B8
:103CE00000E011460A688242FBD34B685C188442AC
:103CF00003D1406818444860084643681C18944241
:103D000009D1084C103C2468A24209D052681A44D8
:103D100042600A6812680260814200D0086030BDCB
:103D20000460F9E7A800002070B5002441600B4D45
:103D30000061914206D8D11A8269914206D2011DD2
:103D4000686807E09A4203D2994201D3012403E054
:103D5000011D286800F050FA204670BD8000002048
:103D600010B5044600F06CFAA06B28B15FF00004B7
:103D700000F086FA204610BD0124F9E730B589B07D
:103D8000304D55E00498002806DADDE90601059A71
:103D90009047049800284BDB069C606910B1201DF9
:103DA00000F0F0F902A800F0B9F8024604980A28D9
:103DB0003ED2DFE800F00505053D263705053D2626
:103DC0000598A169034601442046FFF7ADFF00B303
:103DD000616A20468847E069012829D100200090C7
:103DE0000598A169002342181946204601F002FBFC
:103DF00078B9502080F31188BFF34F8FBFF36F8FD6
:103E0000FEE70598A06128B1811813462046FFF708
:103E10008BFF0DE0502080F31188BFF34F8FBFF36D
:103E20006F8FFEE794F82C0010B9204600F03CFAA2
:103E3000002204A9A86800F0DFFE0028A2D109B082
:103E400030BD0000800000202DE9FC410F460546F2
:103E500000F0EAFB01A800F061F80446019818B1EF
:103E600001F036FABDE8FC81224EAFB170680068FF
:103E7000A8B30027291B3A46B06800F0BFFA01F04A
:103E800027FA0028EED11C494FF080500860BFF39C
:103E90004F8FBFF36F8FE5E7A542EBD801F018FA1B
:103EA00030682746C068C468201D00F06BF9E069DF
:103EB000012810D1A0692B4641193A462046FFF748
:103EC00033FF40B100200346014600902A462046B9
:103ED00001F090FA20B1616A20468847C2E707E006
:103EE000502080F31188BFF34F8FBFF36F8FFEE731
:103EF0000127BFE78000002004ED00E0064841688C
:103F0000096829B14168C968C9684968016370478F
:103F10004FF0FF31FAE700004400002070B505467D
:103F200001F0B0F8064E04463069844203D200F036
:103F300009F8012000E0002028602046346170BDAF
:103F400080000020F8B5194D1FE0C068C4680668FD
:103F5000201D00F017F9616A20468847E0690128B2
:103F600013D1A0693044B04206D924616060211D9C
:103F7000286800F041F908E000200346014600905F
:103F80003246204601F036FA38B128680168002927
:103F9000DBD16968C5E90010F8BD502080F31188B5
:103FA000BFF34F8FBFF36F8FFEE70000800000204C
:103FB00008484068401C4FF0500080F3118804D03E
:103FC000BFF34F8FBFF36F8FFEE7BFF34F8FBFF38A
:103FD0006F8FFEE7B0000020074C2068016841B1F8
:103FE000C0680021D0F80000FFF72EFFFFF7C6FEE3
:103FF000F3E701210020F7E7800000202DE9F041E0
:10400000044600F01DF994F9455004F1240609E036
:10401000606A48B1304601F023F908B100F03EFA79
:104020006D1E6DB2002DF3DC4FF0FF3684F8456055
:1040300000F026F900F004F994F9445004F1100757
:1040400009E0206948B1384601F00AF908B100F0EA
:1040500025FA6D1E6DB2002DF3DC84F84460BDE8D6
:10406000F04100F00DB900002DE9F04105460027B0
:1040700000F0DAFA314E306808B9FFF779FDF068E0
:1040800005424BD1C5B3083568070ED005F00700CF
:10409000C0F108000544680707D0502080F311885C
:1040A000BFF34F8FBFF36F8FFEE72DB3706885426C
:1040B00034D82248103001460C6801E020460C46F6
:1040C0006168A94202D221680029F7D131688C4287
:1040D00024D007682168016060680837411B1029F7
:1040E0000FD96019420708D0502080F31188BFF320
:1040F0004F8FBFF36F8FFEE710E041606560FFF701
:10410000EDFD61687068401A7060B268904200D23C
:10411000B060F06801430020C4E9000101F0D8F864
:10412000780707D0502080F31188BFF34F8FBFF37B
:104130006F8FFEE73846BDE8F08100009800002050
:104140000449086818B10868026D521C02650868C5
:10415000704700004400002010B5031F4FF080742A
:104160001C601B1F21F001011960191F044B0B601B
:1041700014390A60091F6FF0020244380A6010BD4A
:10418000B13F0008D0E9013201699A60D0E901230A
:104190005A604A68824201D182684A600022026104
:1041A0000868401E0860086870470000044B036000
:1041B00003F15C0008604FF48070106070470000ED
:1041C000F0070020044B036003F15C0008604FF42B
:1041D00000701060704700004C0C002000F10801D6
:1041E0004FF0FF32C0E90112C1600161002101609E
:1041F000704700210161704730B50B685A1C02D02E
:1042000000F1080202E0026904E0224654682568D1
:104210009D42FAD953684B6099608A605160086189
:104220000168491C016030BD42684A6093688B6038
:1042300093685960916008610168491C016070478A
:10424000502080F31188BFF34F8FBFF36F8F0A495F
:104250004868401C486001280CD10848006810F0EC
:10426000FF0F07D0502080F31188BFF34F8FBFF3AB
:104270006F8FFEE770470000B000002004ED00E003
:104280000849486828B1401E486001D180F3118870
:104290007047502080F31188BFF34F8FBFF36F8FAB
:1042A000FEE70000B000002070B5002827D0144DB4
:1042B000A0F108046168E868014207D1502080F34A
:1042C0001188BFF34F8FBFF36F8FFEE722683AB1BB
:1042D000502080F31188BFF34F8FBFF36F8FFEE73D
:1042E0008143616000F0A0F9606869680844686013
:1042F0002046FFF7F3FCBDE8704000F0E9BF70BD59
:10430000980000204FF0E020002101618161054903
:104310004FF47A720968B1FBF2F1491E416107213D
:10432000016170474000002010B5FBF79BFF114969
:1043300010280ED300F1E02090F8F0030A789042A4
:1043400007D2502080F31188BFF34F8FBFF36F8FD8
:10435000FEE709480068896800F4E060884207D9F0
:10436000502080F31188BFF34F8FBFF36F8FFEE7AC
:1043700010BD0000B00000200CED00E010B5084BAF
:10438000002200BF53F832401CB1521C082AF9D356
:1043900010BD43F8321003EBC201486010BD0000AD
:1043A000D401002010B504000AD000F013F894F8EE
:1043B000460000280CD12046BDE81040FFF774BF2E
:1043C000502080F31188BFF34F8FBFF36F8FFEE74C
:1043D00010BD0000084A002102EBC1035B68834264
:1043E00006D1002042F8310002EBC101486070475D
:1043F000491C0829F0D37047D401002070B5154638
:104400000E460446FFF71CFF94F944100020491C97
:1044100001D184F8440094F94510491C01D184F875
:104420004500FFF72DFFA06B28B92A46314604F15D
:10443000240000F051F82046BDE87040FFF7DEBDD3
:1044400010B5020014D00F48806B38B1502080F3B3
:104450001188BFF34F8FBFF36F8FFEE700F0E4F8D2
:1044600000211046FFF75EFA00F032FF002807D166
:1044700005494FF080500860BFF34F8FBFF36F8F37
:1044800010BD00004400002004ED00E002498A6AEB
:1044900002604969416070474400002001490120E1
:1044A000486270474400002010B50C4650B10949DD
:1044B00009681831FFF7A0FE2046BDE81040012131
:1044C000FFF730BA502080F31188BFF34F8FBFF34E
:1044D0006F8FFEE74400002070B514460D4668B1AA
:1044E0000A4909681831FFF79FFE0CB14FF0FF35FC
:1044F00021462846BDE87040FFF714BA502080F3EB
:104500001188BFF34F8FBFF36F8FFEE74400002089
:1045100070B504003ED0226DA2B1E06C884200D399
:104520000146E06A884235D0012A33D11A4D2A6803
:1045300094420FD1502080F31188BFF34F8FBFF307
:104540006F8FFEE7502080F31188BFF34F8FBFF3CA
:104550006F8FFEE7E162A269002A02DBC1F1380138
:10456000A1610E4E00EB8000616906EB8000814284
:1045700010D1201DFFF706FEE06AA969884200D924
:10458000A86100EB800006EB8000211DBDE87040B3
:10459000FFF74ABE70BD0000440000201402002056
:1045A00030B587B00024039405AA04A903A8049495
:1045B000FFF7FCFDDDE903010094CDE901100023C4
:1045C00015A11748059A00F024FD164D00286863D0
:1045D0001FD000F0DFFE012809D0401C19D1502067
:1045E00080F31188BFF34F8FBFF36F8FFEE750202A
:1045F00080F31188BFF34F8FBFF36F8F4FF0FF3001
:1046000028630120E8616C6107B0BDE8304000F02C
:1046100045B807B030BD000049444C4500000000DB
:10462000BD3B0008440000200248816B491C8163A7
:104630007047000044000020164810B5816B11B18E
:104640000121416210BD002141628169124A01E0ED
:10465000B9B1491E01EB810352F82330002BF7D08A
:1046600001EB810302EB830202F1080453685B68EB
:104670005360A34201D15B685360DA6802608161D4
:1046800010BD502080F31188BFF34F8FBFF36F8FA1
:10469000FEE7000044000020140200201CB537484B
:1046A0000168374A914207D1502080F31188BFF347
:1046B0004F8FBFF36F8FFEE700683149491E884274
:1046C00007D1502080F31188BFF34F8FBFF36F8F56
:1046D000FEE72C4908780190FF20087008788DF8D3
:1046E00000009DF800009DF8002000F0F0009042CE
:1046F00007D0502080F31188BFF34F8FBFF36F8F27
:10470000FEE79DF80000204B00F0500018700720D5
:10471000986005E09DF8002052008DF80020401EB2
:104720009DF800201206F5D49860032807D0502089
:1047300080F31188BFF34F8FBFF36F8FFEE74FF405
:1047400040709860019808700C482030016841F46E
:1047500070010160016841F070410160FFF7D2FD16
:1047600000205860FBF746FD0848016841F04041D1
:104770000160FBF72BFD00201CBD000000ED00E0F8
:1047800071C20F4100E400E0B000002034EF00E00F
:1047900010B50C4648B184420FD9502080F31188DF
:1047A000BFF34F8FBFF36F8FFEE7502080F3118868
:1047B000BFF34F8FBFF36F8FFEE70222002100F09F
:1047C00024F8002800D0846310BD38B50C4648B1E9
:1047D00084420FD9502080F31188BFF34F8FBFF36D
:1047E0006F8FFEE7502080F31188BFF34F8FBFF328
:1047F0006F8FFEE70221134600220091114600F060
:1048000028F8002800D0846338BDF8B517460E4656
:10481000050014D0DEB105FB06F05030FFF724FC94
:1048200004000AD0002084F8460004F150023B4600
:10483000314628460094FFF7F1F92046F8BD502094
:1048400080F31188BFF34F8FBFF36F8FFEE7002017
:10485000E3E738B5049D18B153B1CAB181B120E086
:10486000502080F31188BFF34F8FBFF36F8FFEE7A7
:10487000502080F31188BFF34F8FBFF36F8FFEE797
:10488000502080F31188BFF34F8FBFF36F8FFEE787
:1048900039B1502080F31188BFF34F8FBFF36F8F72
:1048A000FEE750241C46012384F846302B46009432
:1048B000FFF7B4F9204638BD70B50D46040025D089
:1048C000FFF7BEFCD4E90F20216802FB00116160F4
:1048D0000021A1632168A1600A46D4E90F01401EAE
:1048E00000FB0121E16021464FF0FF3001F8440F49
:1048F000487004F110008DB1FFF770FC04F1240042
:10490000FFF76CFCFFF7BCFC012070BD502080F36A
:104910001188BFF34F8FBFF36F8FFEE72169002926
:10492000F0D000F09DFC0028ECD004494FF08050FE
:104930000860BFF34F8FBFF36F8FE3E704ED00E034
:104940002DE9FF4782B01D468A464FF0000804005B
:1049500003D0BAF1000F08D011E0502080F3118885
:10496000BFF34F8FBFF36F8FFEE7206C38B150203D
:1049700080F31188BFF34F8FBFF36F8FFEE7022DD7
:104980000AD1E06B012807D0502080F31188BFF3D3
:104990004F8FBFF36F8FFEE700F066FB3F4F4FF086
:1049A00000094FF0805648B9049838B1502080F380
:1049B0001188BFF34F8FBFF36F8FFEE7FFF740FC07
:1049C000A06BE16B884207D3022D05D00498D0B1CB
:1049D000B8F1000F1AD01EE02A4651462046FFF7D4
:1049E00076F8616A19B104F1240000F039FC20B1B5
:1049F0003E60BFF34F8FBFF36F8FFFF741FC012085
:104A000006B0BDE8F087FFF73BFC22E06846FFF701
:104A10003DFD4FF00108FFF733FCFFF705FEFFF700
:104A20000FFC94F94400401C01D184F8449094F99F
:104A30004500401C01D184F84590FFF721FC04A9F2
:104A4000684600F07FFA30B12046FFF7D7FA00F051
:104A50003FFC0020D4E7FFF7F3FBA06BE16B88423B
:104A600013D1FFF70DFC04F110000499FFF71CFDB2
:104A70002046FFF7C3FA00F02BFC00289ED13E60D1
:104A8000BFF34F8FBFF36F8F98E7FFF7F9FB204617
:104A9000FFF7B4FA00F01CFC90E7000004ED00E022
:104AA0002DE9F0471F4690468946040003D0B9F12E
:104AB000000F08D011E0502080F31188BFF34F8F12
:104AC000BFF36F8FFEE7206C38B1502080F3118860
:104AD000BFF34F8FBFF36F8FFEE7022F0AD1E06B5A
:104AE000012807D0502080F31188BFF34F8FBFF308
:104AF0006F8FFEE7FFF718FC5020EFF3118680F36D
:104B00001188BFF34F8FBFF36F8FA06BE16B8842AB
:104B100006D3022F04D0002086F31188BDE8F08769
:104B200094F945503A4649462046FEF7D0FF681CA6
:104B300004D06D1C84F845500120EDE7606A002820
:104B4000FAD004F1240000F08BFB0028F4D0B8F177
:104B5000000FF1D00121C8F80010EDE770B50E4646
:104B6000040009D0206C78B1502080F31188BFF385
:104B70004F8FBFF36F8FFEE7502080F31188BFF394
:104B80004F8FBFF36F8FFEE7206848B9606838B178
:104B9000502080F31188BFF34F8FBFF36F8FFEE774
:104BA000FFF7C2FB5020EFF3118580F31188BFF3AC
:104BB0004F8FBFF36F8FA16BE06B884218D994F9C8
:104BC0004500491CA163411C04D0401C84F84500E9
:104BD00001200EE0606A0028FAD004F1240000F001
:104BE0003FFB0028F4D0002EF2D001203060EFE728
:104BF000002085F3118870BD2DE9F747002683B0AA
:104C00008A46040003D0BAF1000F08D011E050200A
:104C100080F31188BFF34F8FBFF36F8FFEE7206CD7
:104C200038B1502080F31188BFF34F8FBFF36F8FDF
:104C3000FEE700F019FADFF8F4804FF000094FF0BA
:104C4000805748B9059838B1502080F31188BFF3D8
:104C50004F8FBFF36F8FFEE7FFF7F2FAA56BC5B179
:104C600051462046FEF720FF6D1EA563206950B116
:104C700004F1100000F0F4FA28B1C8F80070BFF396
:104C80004F8FBFF36F8FFFF7FBFA012006B0BDE82F
:104C9000F087059808B11EB106E0FFF7F1FA27E0AA
:104CA0006846FFF7F3FB0126FFF7EAFAFFF7BCFCC3
:104CB000FFF7C6FA94F94400401C01D184F84490EF
:104CC00094F94500401C01D184F84590FFF7D8FACB
:104CD00005A9684600F036F9002820460AD0FFF7FB
:104CE0008DF900F0F5FA2046FFF73AF80028B3D026
:104CF0000020CBE7FFF734F890B104F124000599C8
:104D0000FFF7D2FB2046FFF779F900F0E1FA00281F
:104D1000A2D1C8F80070BFF34F8FBFF36F8F9BE72E
:104D20002046FFF76BF900F0D3FA95E704ED00E0B9
:104D30002DE9F04790468946040003D0B9F1000FF1
:104D400008D011E0502080F31188BFF34F8FBFF3DC
:104D50006F8FFEE7206C38B1502080F31188BFF3CD
:104D60004F8FBFF36F8FFEE7FFF7DEFA5020EFF3B0
:104D7000118680F31188BFF34F8FBFF36F8FA76B3E
:104D8000F7B194F9445049462046FEF78DFE7F1E48
:104D9000A763681C04D06D1C84F84450012010E007
:104DA00020690028FAD004F1100000F059FA002818
:104DB000F4D0B8F1000FF1D00121C8F80010EDE7F0
:104DC000002086F31188BDE8F08700002DE9F34349
:104DD000002683B00400354609D0206C78B15020FD
:104DE00080F31188BFF34F8FBFF36F8FFEE7502022
:104DF00080F31188BFF34F8FBFF36F8FFEE700F092
:104E000033F9DFF83C814FF000094FF0805748B983
:104E1000049838B1502080F31188BFF34F8FBFF34F
:104E20006F8FFEE7FFF70CFAA06BC8B1401EA063BE
:104E3000206810B9FFF784F96060206950B104F16F
:104E4000100000F00DFA28B1C8F80070BFF34F8FC2
:104E5000BFF36F8FFFF714FA012005B0BDE8F083B0
:104E6000049808B166B10FE03DB1502080F311887D
:104E7000BFF34F8FBFF36F8FFEE7FFF701FA5DE0DF
:104E80006846FFF703FB0126FFF7FAF9FFF7CCFBB3
:104E9000FFF7D6F994F94400401C01D184F84490FE
:104EA00094F94500401C01D184F84590FFF7E8F9DA
:104EB00004A9684600F046F80028204612D0FFF703
:104EC0009DF800F005FA2046FEF74AFF0028A9D019
:104ED0009DB3FFF7B5F9606A50B3206B0068C0F16D
:104EE000380126E0FEF73CFFE0B1206838B9FFF753
:104EF000A7F9606800F078F90546FFF7C1F904F1F9
:104F000024000499FFF7D0FA2046FFF777F800F065
:104F1000DFF9002886D1C8F80070BFF34F8FBFF3C8
:104F20006F8F7FE72046FFF769F800F0D1F979E746
:104F300000216068FFF7ECFA9FE7FFE700208CE7AD
:104F400004ED00E02DE9F0410C46050011D0C4B19C
:104F5000FFF776F9174B5A696E682068911B471C5A
:104F600017D02F689B6A9F4219D0964217D8012408
:104F700010E0502080F31188BFF34F8FBFF36F8F85
:104F8000FEE7502080F31188BFF34F8FBFF36F8F80
:104F9000FEE70024FFF774F92046BDE8F08188425F
:104FA00005D9401A20602846FFF770FAF1E7002083
:104FB0002060DCE7440000202DE9FF5F8346DDE947
:104FC0000E87994616468A469000FFF74DF8050071
:104FD0001CD05C20FFF748F8040014D000202563A3
:104FE00084F85900CDE90240CDE900874B463246AE
:104FF00051465846FEF723FE2046FEF7C1FC01202D
:1050000004B0BDE8F09F2846FFF74EF94FF0FF309F
:10501000F6E7F0B585B0DDE90B640A9DA6B1DCB119
:105020005C2700972663022684F85960002604AFA7
:10503000CDE90246CDE90057FEF701FE2046FEF716
:105040009FFC049805B0F0BD502080F31188BFF399
:105050004F8FBFF36F8FFEE7502080F31188BFF3AF
:105060004F8FBFF36F8FFEE70548C16919B1806BA1
:1050700018B10020704701207047022070470000DF
:1050800044000020014840697047000044000020AF
:1050900010B5FFF749F90148406910BD44000020F0
:1050A0002DE9F0412E4C0027A06B40B1206A401C36
:1050B0002062606A00B101273846BDE8F081666968
:1050C000761C666113D16068006838B1502080F3A7
:1050D0001188BFF34F8FBFF36F8FFEE76068A16841
:1050E0006160A060A06A401CA062FEF707FF206B11
:1050F000DFF87080864209D36068006880B160681C
:10510000C068C568686886420DD220632068C06A9E
:1051100000EB800158F821000128CAD90127C8E70F
:105120004FF0FF30F1E7281DFFF72CF8A86A18B1FF
:1051300005F11800FFF726F8E86AA169884200D94E
:10514000A06100EB800108EB8100291DFFF76CF8DE
:10515000E86A2168C96A8842CED30127CCE70000FB
:10516000440000201402002070B504004FF000013C
:1051700033D01B4D2868844207D0502080F311881B
:10518000BFF34F8FBFF36F8FFEE7206D38B1401E26
:105190002065E36CE26A9A421FD040B11DE05020C6
:1051A00080F31188BFF34F8FBFF36F8FFEE7201D91
:1051B000FEF7E8FFE06CE062C0F13800A061E06A51
:1051C000A969884200D9A861064900EB800001EB7B
:1051D0008000211DFFF728F80121084670BD00005E
:1051E000440000201402002070B504004FF00000BD
:1051F0002BD0194DE16A2A68D26A914226D2A06961
:10520000002804DB2868C06AC0F13800A061134E92
:1052100001EB8101606906EB8101884211D1201DFB
:10522000FEF7B0FF2868C06AE062A969884200D929
:10523000A86100EB800006EB8000211DFEF7F4FF63
:1052400002E02868C06AE062012070BDE16C2A6853
:10525000D26A9142F8D370BD4400002014020020AD
:1052600070B5C068C46854B104F118000646FEF772
:1052700089FF144DA86B50B13146134815E05020FA
:1052800080F31188BFF34F8FBFF36F8FFEE7201DB0
:10529000FEF778FFE06AA969884200D9A8610B4946
:1052A00000EB800001EB8000211DFEF7BDFFE06AEE
:1052B0002968C96A884202D90120686270BD00204D
:1052C00070BD0000440000209C0600201402002055
:1052D0002DE9F0472C4D00242746A86B38B1FEF786
:1052E000AFFFA86B401EA863A86B40B146E05020FA
:1052F00080F31188BFF34F8FBFF36F8FFEE72969EB
:10530000224E0120D1B3A6F5916980463068E0B104
:10531000F068C46804F11800FEF734FF201DFEF7A2
:1053200031FFE06AA969884200D9A86100EB8001D9
:1053300009EB8100211DFEF777FFE06A2968C96A41
:105340008842E3D3C5F82480E0E70CB1FEF7D6FD30
:105350002C6A4CB14FEA0806FFF7A2FE00B16E625C
:10536000641EF9D100202862686A38B10849012713
:1053700038070860BFF34F8FBFF36F8FFEF780FFD2
:105380003846BDE8F0870000440000209C0600205D
:1053900004ED00E010B586B0FEF75AFB114CA06892
:1053A000B8B100200390049005AA04A903A8FEF751
:1053B00009FFDDE9032102208DE8070000230AA18F
:1053C0000B48059AFFF725FEE06010B106B00120FA
:1053D00010BD502080F31188BFF34F8FBFF36F8F44
:1053E000FEE7000080000020546D722053766300B9
:1053F000D93F00082DE9FF411E46134602000A9DD1
:105400004FF0000016D0144CA768002F0FD0CDE944
:1054100000130292062917DAFFF726FE02284FF042
:1054200000030FD000226946A068FFF789FA04B094
:10543000BDE8F081502080F31188BFF34F8FBFF398
:105440006F8FFEE72A46EEE700233246694638466C
:10545000FFF726FBEBE7000080000020F054000877
:1054600000000000000000000000000000550008DF
:10547000000000000000000000000000000000002C
:105480000004000018000000000000000000000000
:105490000C550008000000000000000000000000A3
:1054A00000000000000400001800000000000000E0
:1054B0000000000018550008000000000000000077
:1054C00000000000000000000004000018000000C0
:1054D00000000000000000000000000000000000CC
:1054E000010203040607080900000000010203048A
:1054F0006D7942696E61727953656D3031000000DB
:1055000044485431315F5461736B00004843535237
:1055100030345F5461736B004C43445F5461736B70
:10552000000000004455000800000020C0000000FA
:10553000AC29000804560008C0000020E853000011
:10554000BC2900080000000000000000000000006E
:10555000000000000000000000000000000000004B
:10556000000000000000000000000000000000003B
:10557000000000000000000001000000100000001A
:10558000000000000024F400000000000000000003
:10559000000000000000000000000000000000000B
:1055A00000000000000000000000000000000000FB
:1055B00000000000000000000000000000000000EB
:1055C00000000000000000000000000000000000DB
:1055D00000000000000000000000000000000000CB
:1055E00000000000000000000000000000000000BB
:1055F0000000000000000000AAAAAAAA0000000003
:0456000000000000A6
:040000050800019955
:00000001FF
